{
  "contractName": "ERC721",
  "abi": [
    {
      "inputs": [],
      "stateMutability": "nonpayable",
      "type": "constructor"
    },
    {
      "anonymous": false,
      "inputs": [
        {
          "indexed": true,
          "internalType": "address",
          "name": "_owner",
          "type": "address"
        },
        {
          "indexed": true,
          "internalType": "address",
          "name": "_approved",
          "type": "address"
        },
        {
          "indexed": true,
          "internalType": "uint256",
          "name": "_tokenId",
          "type": "uint256"
        }
      ],
      "name": "Approval",
      "type": "event"
    },
    {
      "anonymous": false,
      "inputs": [
        {
          "indexed": true,
          "internalType": "address",
          "name": "_from",
          "type": "address"
        },
        {
          "indexed": true,
          "internalType": "address",
          "name": "_to",
          "type": "address"
        },
        {
          "indexed": true,
          "internalType": "uint256",
          "name": "_tokenId",
          "type": "uint256"
        }
      ],
      "name": "Transfer",
      "type": "event"
    },
    {
      "inputs": [
        {
          "internalType": "bytes4",
          "name": "interfaceID",
          "type": "bytes4"
        }
      ],
      "name": "supportsInterface",
      "outputs": [
        {
          "internalType": "bool",
          "name": "",
          "type": "bool"
        }
      ],
      "stateMutability": "view",
      "type": "function"
    },
    {
      "inputs": [
        {
          "internalType": "address",
          "name": "_owner",
          "type": "address"
        }
      ],
      "name": "balanceOf",
      "outputs": [
        {
          "internalType": "uint256",
          "name": "",
          "type": "uint256"
        }
      ],
      "stateMutability": "view",
      "type": "function"
    },
    {
      "inputs": [
        {
          "internalType": "uint256",
          "name": "_tokenId",
          "type": "uint256"
        }
      ],
      "name": "ownerOf",
      "outputs": [
        {
          "internalType": "address",
          "name": "",
          "type": "address"
        }
      ],
      "stateMutability": "view",
      "type": "function"
    },
    {
      "inputs": [
        {
          "internalType": "address",
          "name": "_from",
          "type": "address"
        },
        {
          "internalType": "address",
          "name": "_to",
          "type": "address"
        },
        {
          "internalType": "uint256",
          "name": "_tokenId",
          "type": "uint256"
        }
      ],
      "name": "transferFrom",
      "outputs": [],
      "stateMutability": "nonpayable",
      "type": "function"
    },
    {
      "inputs": [
        {
          "internalType": "address",
          "name": "_to",
          "type": "address"
        },
        {
          "internalType": "uint256",
          "name": "_tokenId",
          "type": "uint256"
        }
      ],
      "name": "approve",
      "outputs": [],
      "stateMutability": "nonpayable",
      "type": "function"
    },
    {
      "inputs": [
        {
          "internalType": "uint256",
          "name": "tokenId",
          "type": "uint256"
        }
      ],
      "name": "getApproved",
      "outputs": [
        {
          "internalType": "address",
          "name": "",
          "type": "address"
        }
      ],
      "stateMutability": "view",
      "type": "function"
    },
    {
      "inputs": [
        {
          "internalType": "address",
          "name": "owner",
          "type": "address"
        },
        {
          "internalType": "address",
          "name": "operator",
          "type": "address"
        }
      ],
      "name": "isApprovedForAll",
      "outputs": [
        {
          "internalType": "bool",
          "name": "",
          "type": "bool"
        }
      ],
      "stateMutability": "view",
      "type": "function"
    }
  ],
  "bytecode": "0x60806040523480156200001157600080fd5b50620000437f01ffc9a7a5cef8baa21ed3c5c0d7e23accb804b619e9333b597f47a0d84076e2620000be60201b60201c565b620000b87f22c82707ba960a14c7592ffb6b8cfaa073fed0048a84cc7fa41f6b5bd8e7f2e47f3a6eb71757dfc6e784c1459d26270140c2c147d95ca985c80026fc5301c3eca17f8a7e378434598edc36d108689a030cbc9d7d465de4f74c71bae1028eed6a881b1818620000be60201b60201c565b6200023f565b63ffffffff60e01b817bffffffffffffffffffffffffffffffffffffffffffffffffffffffff191614156200012a576040517f08c379a000000000000000000000000000000000000000000000000000000000815260040162000121906200021d565b60405180910390fd5b6001600080837bffffffffffffffffffffffffffffffffffffffffffffffffffffffff19167bffffffffffffffffffffffffffffffffffffffffffffffffffffffff1916815260200190815260200160002060006101000a81548160ff02191690831515021790555050565b600082825260208201905092915050565b7f4572726f722d4552433136353a20496e76616c696420696e746572666163652060008201527f7265717565737400000000000000000000000000000000000000000000000000602082015250565b60006200020560278362000196565b91506200021282620001a7565b604082019050919050565b600060208201905081810360008301526200023881620001f6565b9050919050565b611339806200024f6000396000f3fe608060405234801561001057600080fd5b506004361061007d5760003560e01c806323b872dd1161005b57806323b872dd146100fe5780636352211e1461011a57806370a082311461014a578063e985e9c51461017a5761007d565b806301ffc9a714610082578063081812fc146100b2578063095ea7b3146100e2575b600080fd5b61009c60048036038101906100979190610b11565b6101aa565b6040516100a99190610b59565b60405180910390f35b6100cc60048036038101906100c79190610baa565b610211565b6040516100d99190610c18565b60405180910390f35b6100fc60048036038101906100f79190610c5f565b610296565b005b61011860048036038101906101139190610c9f565b610432565b005b610134600480360381019061012f9190610baa565b61048b565b6040516101419190610c18565b60405180910390f35b610164600480360381019061015f9190610cf2565b61053d565b6040516101719190610d2e565b60405180910390f35b610194600480360381019061018f9190610d49565b6105fc565b6040516101a19190610b59565b60405180910390f35b6000806000837bffffffffffffffffffffffffffffffffffffffffffffffffffffffff19167bffffffffffffffffffffffffffffffffffffffffffffffffffffffff1916815260200190815260200160002060009054906101000a900460ff169050919050565b600061021c82610690565b61025b576040517f08c379a000000000000000000000000000000000000000000000000000000000815260040161025290610e0c565b60405180910390fd5b6003600083815260200190815260200160002060009054906101000a900473ffffffffffffffffffffffffffffffffffffffff169050919050565b60006102a18261048b565b90508073ffffffffffffffffffffffffffffffffffffffff168373ffffffffffffffffffffffffffffffffffffffff161415610312576040517f08c379a000000000000000000000000000000000000000000000000000000000815260040161030990610e9e565b60405180910390fd5b8073ffffffffffffffffffffffffffffffffffffffff163373ffffffffffffffffffffffffffffffffffffffff1614610380576040517f08c379a000000000000000000000000000000000000000000000000000000000815260040161037790610f30565b60405180910390fd5b826003600084815260200190815260200160002060006101000a81548173ffffffffffffffffffffffffffffffffffffffff021916908373ffffffffffffffffffffffffffffffffffffffff160217905550818373ffffffffffffffffffffffffffffffffffffffff168273ffffffffffffffffffffffffffffffffffffffff167f8c5be1e5ebec7d5bd14f71427d1e84f3dd0314c0f7b2291e5b200ac8c7c3b92560405160405180910390a4505050565b61043c3382610702565b61047b576040517f08c379a000000000000000000000000000000000000000000000000000000000815260040161047290610fc2565b60405180910390fd5b6104868383836107e0565b505050565b6000806001600084815260200190815260200160002060009054906101000a900473ffffffffffffffffffffffffffffffffffffffff169050600073ffffffffffffffffffffffffffffffffffffffff168173ffffffffffffffffffffffffffffffffffffffff161415610534576040517f08c379a000000000000000000000000000000000000000000000000000000000815260040161052b9061102e565b60405180910390fd5b80915050919050565b60008073ffffffffffffffffffffffffffffffffffffffff168273ffffffffffffffffffffffffffffffffffffffff1614156105ae576040517f08c379a00000000000000000000000000000000000000000000000000000000081526004016105a59061109a565b60405180910390fd5b6105f5600260008473ffffffffffffffffffffffffffffffffffffffff1673ffffffffffffffffffffffffffffffffffffffff168152602001908152602001600020610a06565b9050919050565b6000600460008473ffffffffffffffffffffffffffffffffffffffff1673ffffffffffffffffffffffffffffffffffffffff16815260200190815260200160002060008373ffffffffffffffffffffffffffffffffffffffff1673ffffffffffffffffffffffffffffffffffffffff16815260200190815260200160002060009054906101000a900460ff16905092915050565b6000806001600084815260200190815260200160002060009054906101000a900473ffffffffffffffffffffffffffffffffffffffff169050600073ffffffffffffffffffffffffffffffffffffffff168173ffffffffffffffffffffffffffffffffffffffff161415915050919050565b600061070d82610690565b61074c576040517f08c379a000000000000000000000000000000000000000000000000000000000815260040161074390610e0c565b60405180910390fd5b60006107578361048b565b90508073ffffffffffffffffffffffffffffffffffffffff168473ffffffffffffffffffffffffffffffffffffffff1614806107c657508373ffffffffffffffffffffffffffffffffffffffff166107ae84610211565b73ffffffffffffffffffffffffffffffffffffffff16145b806107d757506107d681856105fc565b5b91505092915050565b600073ffffffffffffffffffffffffffffffffffffffff168273ffffffffffffffffffffffffffffffffffffffff161415610850576040517f08c379a00000000000000000000000000000000000000000000000000000000081526004016108479061112c565b60405180910390fd5b8273ffffffffffffffffffffffffffffffffffffffff166108708261048b565b73ffffffffffffffffffffffffffffffffffffffff16146108c6576040517f08c379a00000000000000000000000000000000000000000000000000000000081526004016108bd906111be565b60405180910390fd5b61090d600260008573ffffffffffffffffffffffffffffffffffffffff1673ffffffffffffffffffffffffffffffffffffffff168152602001908152602001600020610a14565b610954600260008473ffffffffffffffffffffffffffffffffffffffff1673ffffffffffffffffffffffffffffffffffffffff168152602001908152602001600020610a37565b816001600083815260200190815260200160002060006101000a81548173ffffffffffffffffffffffffffffffffffffffff021916908373ffffffffffffffffffffffffffffffffffffffff160217905550808273ffffffffffffffffffffffffffffffffffffffff168473ffffffffffffffffffffffffffffffffffffffff167fddf252ad1be2c89b69c2b068fc378daa952ba7f163c4a11628f55a4df523b3ef60405160405180910390a4505050565b600081600001549050919050565b610a2c60018260000154610a5690919063ffffffff16565b816000018190555050565b6001816000016000828254610a4c919061120d565b9250508190555050565b6000808284610a659190611263565b905083831115610aaa576040517f08c379a0000000000000000000000000000000000000000000000000000000008152600401610aa1906112e3565b60405180910390fd5b8091505092915050565b600080fd5b60007fffffffff0000000000000000000000000000000000000000000000000000000082169050919050565b610aee81610ab9565b8114610af957600080fd5b50565b600081359050610b0b81610ae5565b92915050565b600060208284031215610b2757610b26610ab4565b5b6000610b3584828501610afc565b91505092915050565b60008115159050919050565b610b5381610b3e565b82525050565b6000602082019050610b6e6000830184610b4a565b92915050565b6000819050919050565b610b8781610b74565b8114610b9257600080fd5b50565b600081359050610ba481610b7e565b92915050565b600060208284031215610bc057610bbf610ab4565b5b6000610bce84828501610b95565b91505092915050565b600073ffffffffffffffffffffffffffffffffffffffff82169050919050565b6000610c0282610bd7565b9050919050565b610c1281610bf7565b82525050565b6000602082019050610c2d6000830184610c09565b92915050565b610c3c81610bf7565b8114610c4757600080fd5b50565b600081359050610c5981610c33565b92915050565b60008060408385031215610c7657610c75610ab4565b5b6000610c8485828601610c4a565b9250506020610c9585828601610b95565b9150509250929050565b600080600060608486031215610cb857610cb7610ab4565b5b6000610cc686828701610c4a565b9350506020610cd786828701610c4a565b9250506040610ce886828701610b95565b9150509250925092565b600060208284031215610d0857610d07610ab4565b5b6000610d1684828501610c4a565b91505092915050565b610d2881610b74565b82525050565b6000602082019050610d436000830184610d1f565b92915050565b60008060408385031215610d6057610d5f610ab4565b5b6000610d6e85828601610c4a565b9250506020610d7f85828601610c4a565b9150509250929050565b600082825260208201905092915050565b7f4572726f722d4552433732313a20546f6b656e20696420646f6573206e6f742060008201527f6578697374000000000000000000000000000000000000000000000000000000602082015250565b6000610df6602583610d89565b9150610e0182610d9a565b604082019050919050565b60006020820190508181036000830152610e2581610de9565b9050919050565b7f4572726f722d4552433732313a204f776e65722063616e6e6f74207472616e7360008201527f66657220746f20697473656c6600000000000000000000000000000000000000602082015250565b6000610e88602d83610d89565b9150610e9382610e2c565b604082019050919050565b60006020820190508181036000830152610eb781610e7b565b9050919050565b7f4572726f722d4552433732313a204f6e6c79206f776e65722063616e2061707060008201527f726f766520746865207472616e73616374696f6e000000000000000000000000602082015250565b6000610f1a603483610d89565b9150610f2582610ebe565b604082019050919050565b60006020820190508181036000830152610f4981610f0d565b9050919050565b7f4572726f722d4552433732313a204f6e6c79206f776e65722063616e2070657260008201527f666f726d20746865207472616e73666572000000000000000000000000000000602082015250565b6000610fac603183610d89565b9150610fb782610f50565b604082019050919050565b60006020820190508181036000830152610fdb81610f9f565b9050919050565b7f6f776e6572206164647265737320646f6573206e6f7420657869737400000000600082015250565b6000611018601c83610d89565b915061102382610fe2565b602082019050919050565b600060208201905081810360008301526110478161100b565b9050919050565b7f6164647265737320646f6573206e6f7420657869737400000000000000000000600082015250565b6000611084601683610d89565b915061108f8261104e565b602082019050919050565b600060208201905081810360008301526110b381611077565b9050919050565b7f4572726f722d4552433732313a205472616e7366657220746f20746865207a6560008201527f726f206164647265737300000000000000000000000000000000000000000000602082015250565b6000611116602a83610d89565b9150611121826110ba565b604082019050919050565b6000602082019050818103600083015261114581611109565b9050919050565b7f4572726f722d4552433732313a204f6e6c79206f776e65722063616e20646f2060008201527f746865207472616e73616374696f6e0000000000000000000000000000000000602082015250565b60006111a8602f83610d89565b91506111b38261114c565b604082019050919050565b600060208201905081810360008301526111d78161119b565b9050919050565b7f4e487b7100000000000000000000000000000000000000000000000000000000600052601160045260246000fd5b600061121882610b74565b915061122383610b74565b9250827fffffffffffffffffffffffffffffffffffffffffffffffffffffffffffffffff03821115611258576112576111de565b5b828201905092915050565b600061126e82610b74565b915061127983610b74565b92508282101561128c5761128b6111de565b5b828203905092915050565b7f536166654d6174683a205375627472616374696f6e204f766572666c6f770000600082015250565b60006112cd601e83610d89565b91506112d882611297565b602082019050919050565b600060208201905081810360008301526112fc816112c0565b905091905056fea264697066735822122056eb04cfc4cd8d32510e2359040b41486aea5d634bdd423026edea693be217a964736f6c634300080c0033",
  "immutableReferences": {},
  "source": "// SPDX-License-Identifier: MIT\r\npragma solidity ^0.8.0;\r\n\r\nimport './ERC165.sol';\r\nimport './interfaces/IERC721.sol';\r\nimport './libraries/Counters.sol';\r\n\r\ncontract ERC721 is ERC165, IERC721 {\r\n\r\n/*\r\n    // ERC721 event : Transfer\r\n    event Transfer(\r\n        address indexed from, \r\n        address indexed to,\r\n        uint256 indexed tokenId\r\n        );\r\n    \r\n    // ERC721 event : Approval\r\n    event Approval(\r\n        address indexed owner,\r\n        address indexed approved,\r\n        uint256 indexed tokenId\r\n    );\r\n*/\r\n\r\n    // using libraries\r\n    using SafeMath for uint256;\r\n    using Counters for Counters.Counter;\r\n\r\n    // mapping token id to the owner\r\n    mapping(uint => address) private _tokenOwner;\r\n\r\n    // mapping owner to the number of owned tokens\r\n    mapping(address => Counters.Counter) private _ownedTokensCount;\r\n\r\n    // mapping from token ids to approved addresses\r\n    mapping(uint256 => address) private _tokenApprovals;\r\n\r\n    // mapping from owner to operator approvals\r\n    mapping(address => mapping(address => bool)) private _operatorApprovals;\r\n\r\n\r\n    constructor() {\r\n\r\n        _registerInterface(bytes4(keccak256('balanceOf(bytes4)')^\r\n                                  keccak256('ownerOf(bytes4)')^\r\n                                  keccak256('transferFrom(bytes4)')));\r\n\r\n    }\r\n\r\n    \r\n    // function : checking balance of owner\r\n    function balanceOf(address _owner) public view returns(uint256) {\r\n\r\n        require(_owner != address(0), \"address does not exist\");\r\n        return _ownedTokensCount[_owner].current();\r\n\r\n    }\r\n\r\n\r\n    // function : finding owner of a token id\r\n    function ownerOf(uint256 _tokenId) public view returns(address) {\r\n\r\n        address owner = _tokenOwner[_tokenId];\r\n        require(owner != address(0), \"owner address does not exist\");\r\n        return owner;\r\n\r\n    }\r\n\r\n    \r\n    //  function : checking that the owner exists\r\n    function _exists(uint256 tokenId) internal view returns(bool) {\r\n\r\n        // assigning the address of the token owner to further check\r\n        // the availibility of new token\r\n        address owner = _tokenOwner[tokenId];\r\n\r\n        // return truthiness that address is not zero\r\n        return owner != address(0);\r\n\r\n    }\r\n    \r\n    \r\n    // function : minting the transactions\r\n    function _mint(address to, uint256 tokenId) internal virtual {\r\n\r\n        // requires that the address isn't zero\r\n        require(to != address(0), \"ERC721: cannot be minted to address zero\");\r\n\r\n        // requires that the token does not already exists\r\n        require(!_exists(tokenId) , \"ERC721: token already minted\");\r\n        \r\n        // we are adding new address with a token id for minting\r\n        _tokenOwner[tokenId] = to;\r\n\r\n        // increasing owned tokens count of the address added in the above line\r\n        _ownedTokensCount[to].increment();\r\n\r\n        emit Transfer(address(0), to, tokenId);\r\n\r\n    }\r\n\r\n\r\n    // function : transfer transaction\r\n    function _transferFrom(address _from, address _to, uint256 _tokenId) internal {\r\n\r\n        require( _to != address(0), \"Error-ERC721: Transfer to the zero address\");\r\n        require( ownerOf(_tokenId) == _from, \"Error-ERC721: Only owner can do the transaction\");\r\n\r\n        _ownedTokensCount[_from].decrement();\r\n        _ownedTokensCount[_to].increment();\r\n\r\n        _tokenOwner[_tokenId] = _to;\r\n\r\n        emit Transfer(_from, _to, _tokenId);\r\n\r\n    }\r\n\r\n\r\n    function transferFrom(address _from, address _to, uint256 _tokenId) public {\r\n\r\n        require(isApprovedOrOwner(msg.sender, _tokenId), \"Error-ERC721: Only owner can perform the transfer\");\r\n\r\n        _transferFrom(_from, _to, _tokenId);\r\n\r\n    }\r\n\r\n\r\n    // function : approving the transaction\r\n    function approve(address _to, uint256 _tokenId) public {\r\n\r\n        address owner = ownerOf(_tokenId);\r\n\r\n        // checking that owner is not transferring to itself\r\n        require( _to != owner , \"Error-ERC721: Owner cannot transfer to itself\");\r\n        \r\n        // checking that only the owner will approve the transfer\r\n        require( msg.sender == owner, \"Error-ERC721: Only owner can approve the transaction\");\r\n\r\n        // updating the map of the approved addresses\r\n        _tokenApprovals[_tokenId] = _to;\r\n\r\n        // emmiting Approval event\r\n        emit Approval(owner, _to, _tokenId);\r\n\r\n    }\r\n\r\n\r\n    // function : approving token Id\r\n    function getApproved(uint256 tokenId) public view returns (address) {\r\n\r\n        // checking that tokenId exists\r\n        require( _exists(tokenId), \"Error-ERC721: Token id does not exist\");\r\n\r\n        return _tokenApprovals[tokenId];  \r\n\r\n    }\r\n\r\n\r\n    // function : \r\n    function isApprovedForAll(address owner, address operator) public view returns (bool) {\r\n\r\n        return _operatorApprovals[owner][operator];\r\n\r\n    }\r\n    \r\n    \r\n    // function : returns whether spender is allowed to manage tokenId\r\n    function isApprovedOrOwner(address spender, uint256 tokenId) internal view virtual returns (bool) {\r\n\r\n        // checking that tokenId exists\r\n        require( _exists(tokenId), \"Error-ERC721: Token id does not exist\");\r\n\r\n        address owner = ownerOf(tokenId);\r\n\r\n        return( spender == owner || getApproved(tokenId) == spender || isApprovedForAll(owner, spender) );\r\n\r\n    }\r\n\r\n}",
  "sourcePath": "D:\\Blockchain\\Projects\\NFT Marketplace\\src\\contracts\\ERC721.sol",
  "compiler": {
    "name": "solc",
    "version": "0.8.12+commit.f00d7308.Emscripten.clang"
  },
  "schemaVersion": "3.4.4",
  "updatedAt": "2022-02-25T16:51:47.309Z",
  "devdoc": {
    "kind": "dev",
    "methods": {
      "balanceOf(address)": {
        "details": "NFTs assigned to the zero address are considered invalid, and this  function throws for queries about the zero address.",
        "params": {
          "_owner": "An address for whom to query the balance"
        },
        "returns": {
          "_0": "The number of NFTs owned by `_owner`, possibly zero"
        }
      },
      "ownerOf(uint256)": {
        "details": "NFTs assigned to zero address are considered invalid, and queries  about them do throw.",
        "params": {
          "_tokenId": "The identifier for an NFT"
        },
        "returns": {
          "_0": "The address of the owner of the NFT"
        }
      },
      "supportsInterface(bytes4)": {
        "details": "Interface identification is specified in ERC-165. This function  uses less than 30,000 gas.",
        "params": {
          "interfaceID": "The interface identifier, as specified in ERC-165"
        },
        "returns": {
          "_0": "`true` if the contract implements `interfaceID` and  `interfaceID` is not 0xffffffff, `false` otherwise"
        }
      },
      "transferFrom(address,address,uint256)": {
        "details": "Throws unless `msg.sender` is the current owner, an authorized  operator, or the approved address for this NFT. Throws if `_from` is  not the current owner. Throws if `_to` is the zero address. Throws if  `_tokenId` is not a valid NFT.",
        "params": {
          "_from": "The current owner of the NFT",
          "_to": "The new owner",
          "_tokenId": "The NFT to transfer"
        }
      }
    },
    "version": 1
  },
  "userdoc": {
    "kind": "user",
    "methods": {
      "balanceOf(address)": {
        "notice": "Count all NFTs assigned to an owner"
      },
      "ownerOf(uint256)": {
        "notice": "Find the owner of an NFT"
      },
      "supportsInterface(bytes4)": {
        "notice": "Query if a contract implements an interface"
      },
      "transferFrom(address,address,uint256)": {
        "notice": "Transfer ownership of an NFT -- THE CALLER IS RESPONSIBLE  TO CONFIRM THAT `_to` IS CAPABLE OF RECEIVING NFTS OR ELSE  THEY MAY BE PERMANENTLY LOST"
      }
    },
    "version": 1
  }
}