{
  "contractName": "ERC721Enumerable",
  "abi": [
    {
      "inputs": [],
      "stateMutability": "nonpayable",
      "type": "constructor"
    },
    {
      "anonymous": false,
      "inputs": [
        {
          "indexed": true,
          "internalType": "address",
          "name": "_owner",
          "type": "address"
        },
        {
          "indexed": true,
          "internalType": "address",
          "name": "_approved",
          "type": "address"
        },
        {
          "indexed": true,
          "internalType": "uint256",
          "name": "_tokenId",
          "type": "uint256"
        }
      ],
      "name": "Approval",
      "type": "event"
    },
    {
      "anonymous": false,
      "inputs": [
        {
          "indexed": true,
          "internalType": "address",
          "name": "_from",
          "type": "address"
        },
        {
          "indexed": true,
          "internalType": "address",
          "name": "_to",
          "type": "address"
        },
        {
          "indexed": true,
          "internalType": "uint256",
          "name": "_tokenId",
          "type": "uint256"
        }
      ],
      "name": "Transfer",
      "type": "event"
    },
    {
      "inputs": [
        {
          "internalType": "address",
          "name": "_to",
          "type": "address"
        },
        {
          "internalType": "uint256",
          "name": "_tokenId",
          "type": "uint256"
        }
      ],
      "name": "approve",
      "outputs": [],
      "stateMutability": "nonpayable",
      "type": "function"
    },
    {
      "inputs": [
        {
          "internalType": "address",
          "name": "_owner",
          "type": "address"
        }
      ],
      "name": "balanceOf",
      "outputs": [
        {
          "internalType": "uint256",
          "name": "",
          "type": "uint256"
        }
      ],
      "stateMutability": "view",
      "type": "function"
    },
    {
      "inputs": [
        {
          "internalType": "uint256",
          "name": "tokenId",
          "type": "uint256"
        }
      ],
      "name": "getApproved",
      "outputs": [
        {
          "internalType": "address",
          "name": "",
          "type": "address"
        }
      ],
      "stateMutability": "view",
      "type": "function"
    },
    {
      "inputs": [
        {
          "internalType": "address",
          "name": "owner",
          "type": "address"
        },
        {
          "internalType": "address",
          "name": "operator",
          "type": "address"
        }
      ],
      "name": "isApprovedForAll",
      "outputs": [
        {
          "internalType": "bool",
          "name": "",
          "type": "bool"
        }
      ],
      "stateMutability": "view",
      "type": "function"
    },
    {
      "inputs": [
        {
          "internalType": "uint256",
          "name": "_tokenId",
          "type": "uint256"
        }
      ],
      "name": "ownerOf",
      "outputs": [
        {
          "internalType": "address",
          "name": "",
          "type": "address"
        }
      ],
      "stateMutability": "view",
      "type": "function"
    },
    {
      "inputs": [
        {
          "internalType": "bytes4",
          "name": "interfaceID",
          "type": "bytes4"
        }
      ],
      "name": "supportsInterface",
      "outputs": [
        {
          "internalType": "bool",
          "name": "",
          "type": "bool"
        }
      ],
      "stateMutability": "view",
      "type": "function"
    },
    {
      "inputs": [
        {
          "internalType": "address",
          "name": "_from",
          "type": "address"
        },
        {
          "internalType": "address",
          "name": "_to",
          "type": "address"
        },
        {
          "internalType": "uint256",
          "name": "_tokenId",
          "type": "uint256"
        }
      ],
      "name": "transferFrom",
      "outputs": [],
      "stateMutability": "nonpayable",
      "type": "function"
    },
    {
      "inputs": [
        {
          "internalType": "uint256",
          "name": "_index",
          "type": "uint256"
        }
      ],
      "name": "tokenByIndex",
      "outputs": [
        {
          "internalType": "uint256",
          "name": "",
          "type": "uint256"
        }
      ],
      "stateMutability": "view",
      "type": "function"
    },
    {
      "inputs": [
        {
          "internalType": "address",
          "name": "_owner",
          "type": "address"
        },
        {
          "internalType": "uint256",
          "name": "_index",
          "type": "uint256"
        }
      ],
      "name": "tokenOfOwnerByIndex",
      "outputs": [
        {
          "internalType": "uint256",
          "name": "",
          "type": "uint256"
        }
      ],
      "stateMutability": "view",
      "type": "function"
    },
    {
      "inputs": [],
      "name": "totalSupply",
      "outputs": [
        {
          "internalType": "uint256",
          "name": "",
          "type": "uint256"
        }
      ],
      "stateMutability": "view",
      "type": "function"
    }
  ],
  "bytecode": "0x60806040523480156200001157600080fd5b50620000437f01ffc9a7a5cef8baa21ed3c5c0d7e23accb804b619e9333b597f47a0d84076e26200013360201b60201c565b620000b87f22c82707ba960a14c7592ffb6b8cfaa073fed0048a84cc7fa41f6b5bd8e7f2e47f3a6eb71757dfc6e784c1459d26270140c2c147d95ca985c80026fc5301c3eca17f8a7e378434598edc36d108689a030cbc9d7d465de4f74c71bae1028eed6a881b18186200013360201b60201c565b6200012d7f8230223f691b981717299fae9549350a0d894555723531f02108b1f522c1a7977f6da5e1284143cdd2d15038a59bde3be031250f00291d64494c12d967b3a4e0c37fc53637662700e6c65104059db8bba34439e0c32483ab7c34e3ccae52c739549518186200013360201b60201c565b620002b4565b63ffffffff60e01b817bffffffffffffffffffffffffffffffffffffffffffffffffffffffff191614156200019f576040517f08c379a0000000000000000000000000000000000000000000000000000000008152600401620001969062000292565b60405180910390fd5b6001600080837bffffffffffffffffffffffffffffffffffffffffffffffffffffffff19167bffffffffffffffffffffffffffffffffffffffffffffffffffffffff1916815260200190815260200160002060006101000a81548160ff02191690831515021790555050565b600082825260208201905092915050565b7f4572726f722d4552433136353a20496e76616c696420696e746572666163652060008201527f7265717565737400000000000000000000000000000000000000000000000000602082015250565b60006200027a6027836200020b565b915062000287826200021c565b604082019050919050565b60006020820190508181036000830152620002ad816200026b565b9050919050565b61160d80620002c46000396000f3fe608060405234801561001057600080fd5b506004361061009e5760003560e01c80632f745c59116100665780632f745c59146101595780634f6ccce7146101895780636352211e146101b957806370a08231146101e9578063e985e9c5146102195761009e565b806301ffc9a7146100a3578063081812fc146100d3578063095ea7b31461010357806318160ddd1461011f57806323b872dd1461013d575b600080fd5b6100bd60048036038101906100b89190610cde565b610249565b6040516100ca9190610d26565b60405180910390f35b6100ed60048036038101906100e89190610d77565b6102b0565b6040516100fa9190610de5565b60405180910390f35b61011d60048036038101906101189190610e2c565b610335565b005b6101276104d1565b6040516101349190610e7b565b60405180910390f35b61015760048036038101906101529190610e96565b6104de565b005b610173600480360381019061016e9190610e2c565b610537565b6040516101809190610e7b565b60405180910390f35b6101a3600480360381019061019e9190610d77565b6105e7565b6040516101b09190610e7b565b60405180910390f35b6101d360048036038101906101ce9190610d77565b610658565b6040516101e09190610de5565b60405180910390f35b61020360048036038101906101fe9190610ee9565b61070a565b6040516102109190610e7b565b60405180910390f35b610233600480360381019061022e9190610f16565b6107c9565b6040516102409190610d26565b60405180910390f35b6000806000837bffffffffffffffffffffffffffffffffffffffffffffffffffffffff19167bffffffffffffffffffffffffffffffffffffffffffffffffffffffff1916815260200190815260200160002060009054906101000a900460ff169050919050565b60006102bb8261085d565b6102fa576040517f08c379a00000000000000000000000000000000000000000000000000000000081526004016102f190610fd9565b60405180910390fd5b6003600083815260200190815260200160002060009054906101000a900473ffffffffffffffffffffffffffffffffffffffff169050919050565b600061034082610658565b90508073ffffffffffffffffffffffffffffffffffffffff168373ffffffffffffffffffffffffffffffffffffffff1614156103b1576040517f08c379a00000000000000000000000000000000000000000000000000000000081526004016103a89061106b565b60405180910390fd5b8073ffffffffffffffffffffffffffffffffffffffff163373ffffffffffffffffffffffffffffffffffffffff161461041f576040517f08c379a0000000000000000000000000000000000000000000000000000000008152600401610416906110fd565b60405180910390fd5b826003600084815260200190815260200160002060006101000a81548173ffffffffffffffffffffffffffffffffffffffff021916908373ffffffffffffffffffffffffffffffffffffffff160217905550818373ffffffffffffffffffffffffffffffffffffffff168273ffffffffffffffffffffffffffffffffffffffff167f8c5be1e5ebec7d5bd14f71427d1e84f3dd0314c0f7b2291e5b200ac8c7c3b92560405160405180910390a4505050565b6000600580549050905090565b6104e833826108cf565b610527576040517f08c379a000000000000000000000000000000000000000000000000000000000815260040161051e9061118f565b60405180910390fd5b6105328383836109ad565b505050565b60006105428361070a565b8210610583576040517f08c379a000000000000000000000000000000000000000000000000000000000815260040161057a906111fb565b60405180910390fd5b600760008473ffffffffffffffffffffffffffffffffffffffff1673ffffffffffffffffffffffffffffffffffffffff16815260200190815260200160002082815481106105d4576105d361121b565b5b9060005260206000200154905092915050565b60006105f16104d1565b8210610632576040517f08c379a000000000000000000000000000000000000000000000000000000000815260040161062990611296565b60405180910390fd5b600582815481106106465761064561121b565b5b90600052602060002001549050919050565b6000806001600084815260200190815260200160002060009054906101000a900473ffffffffffffffffffffffffffffffffffffffff169050600073ffffffffffffffffffffffffffffffffffffffff168173ffffffffffffffffffffffffffffffffffffffff161415610701576040517f08c379a00000000000000000000000000000000000000000000000000000000081526004016106f890611302565b60405180910390fd5b80915050919050565b60008073ffffffffffffffffffffffffffffffffffffffff168273ffffffffffffffffffffffffffffffffffffffff16141561077b576040517f08c379a00000000000000000000000000000000000000000000000000000000081526004016107729061136e565b60405180910390fd5b6107c2600260008473ffffffffffffffffffffffffffffffffffffffff1673ffffffffffffffffffffffffffffffffffffffff168152602001908152602001600020610bd3565b9050919050565b6000600460008473ffffffffffffffffffffffffffffffffffffffff1673ffffffffffffffffffffffffffffffffffffffff16815260200190815260200160002060008373ffffffffffffffffffffffffffffffffffffffff1673ffffffffffffffffffffffffffffffffffffffff16815260200190815260200160002060009054906101000a900460ff16905092915050565b6000806001600084815260200190815260200160002060009054906101000a900473ffffffffffffffffffffffffffffffffffffffff169050600073ffffffffffffffffffffffffffffffffffffffff168173ffffffffffffffffffffffffffffffffffffffff161415915050919050565b60006108da8261085d565b610919576040517f08c379a000000000000000000000000000000000000000000000000000000000815260040161091090610fd9565b60405180910390fd5b600061092483610658565b90508073ffffffffffffffffffffffffffffffffffffffff168473ffffffffffffffffffffffffffffffffffffffff16148061099357508373ffffffffffffffffffffffffffffffffffffffff1661097b846102b0565b73ffffffffffffffffffffffffffffffffffffffff16145b806109a457506109a381856107c9565b5b91505092915050565b600073ffffffffffffffffffffffffffffffffffffffff168273ffffffffffffffffffffffffffffffffffffffff161415610a1d576040517f08c379a0000000000000000000000000000000000000000000000000000000008152600401610a1490611400565b60405180910390fd5b8273ffffffffffffffffffffffffffffffffffffffff16610a3d82610658565b73ffffffffffffffffffffffffffffffffffffffff1614610a93576040517f08c379a0000000000000000000000000000000000000000000000000000000008152600401610a8a90611492565b60405180910390fd5b610ada600260008573ffffffffffffffffffffffffffffffffffffffff1673ffffffffffffffffffffffffffffffffffffffff168152602001908152602001600020610be1565b610b21600260008473ffffffffffffffffffffffffffffffffffffffff1673ffffffffffffffffffffffffffffffffffffffff168152602001908152602001600020610c04565b816001600083815260200190815260200160002060006101000a81548173ffffffffffffffffffffffffffffffffffffffff021916908373ffffffffffffffffffffffffffffffffffffffff160217905550808273ffffffffffffffffffffffffffffffffffffffff168473ffffffffffffffffffffffffffffffffffffffff167fddf252ad1be2c89b69c2b068fc378daa952ba7f163c4a11628f55a4df523b3ef60405160405180910390a4505050565b600081600001549050919050565b610bf960018260000154610c2390919063ffffffff16565b816000018190555050565b6001816000016000828254610c1991906114e1565b9250508190555050565b6000808284610c329190611537565b905083831115610c77576040517f08c379a0000000000000000000000000000000000000000000000000000000008152600401610c6e906115b7565b60405180910390fd5b8091505092915050565b600080fd5b60007fffffffff0000000000000000000000000000000000000000000000000000000082169050919050565b610cbb81610c86565b8114610cc657600080fd5b50565b600081359050610cd881610cb2565b92915050565b600060208284031215610cf457610cf3610c81565b5b6000610d0284828501610cc9565b91505092915050565b60008115159050919050565b610d2081610d0b565b82525050565b6000602082019050610d3b6000830184610d17565b92915050565b6000819050919050565b610d5481610d41565b8114610d5f57600080fd5b50565b600081359050610d7181610d4b565b92915050565b600060208284031215610d8d57610d8c610c81565b5b6000610d9b84828501610d62565b91505092915050565b600073ffffffffffffffffffffffffffffffffffffffff82169050919050565b6000610dcf82610da4565b9050919050565b610ddf81610dc4565b82525050565b6000602082019050610dfa6000830184610dd6565b92915050565b610e0981610dc4565b8114610e1457600080fd5b50565b600081359050610e2681610e00565b92915050565b60008060408385031215610e4357610e42610c81565b5b6000610e5185828601610e17565b9250506020610e6285828601610d62565b9150509250929050565b610e7581610d41565b82525050565b6000602082019050610e906000830184610e6c565b92915050565b600080600060608486031215610eaf57610eae610c81565b5b6000610ebd86828701610e17565b9350506020610ece86828701610e17565b9250506040610edf86828701610d62565b9150509250925092565b600060208284031215610eff57610efe610c81565b5b6000610f0d84828501610e17565b91505092915050565b60008060408385031215610f2d57610f2c610c81565b5b6000610f3b85828601610e17565b9250506020610f4c85828601610e17565b9150509250929050565b600082825260208201905092915050565b7f4572726f722d4552433732313a20546f6b656e20696420646f6573206e6f742060008201527f6578697374000000000000000000000000000000000000000000000000000000602082015250565b6000610fc3602583610f56565b9150610fce82610f67565b604082019050919050565b60006020820190508181036000830152610ff281610fb6565b9050919050565b7f4572726f722d4552433732313a204f776e65722063616e6e6f74207472616e7360008201527f66657220746f20697473656c6600000000000000000000000000000000000000602082015250565b6000611055602d83610f56565b915061106082610ff9565b604082019050919050565b6000602082019050818103600083015261108481611048565b9050919050565b7f4572726f722d4552433732313a204f6e6c79206f776e65722063616e2061707060008201527f726f766520746865207472616e73616374696f6e000000000000000000000000602082015250565b60006110e7603483610f56565b91506110f28261108b565b604082019050919050565b60006020820190508181036000830152611116816110da565b9050919050565b7f4572726f722d4552433732313a204f6e6c79206f776e65722063616e2070657260008201527f666f726d20746865207472616e73666572000000000000000000000000000000602082015250565b6000611179603183610f56565b91506111848261111d565b604082019050919050565b600060208201905081810360008301526111a88161116c565b9050919050565b7f6f776e657220696e646578206973206f7574206f662072616e67650000000000600082015250565b60006111e5601b83610f56565b91506111f0826111af565b602082019050919050565b60006020820190508181036000830152611214816111d8565b9050919050565b7f4e487b7100000000000000000000000000000000000000000000000000000000600052603260045260246000fd5b7f676c6f62616c20696e646578206973206f7574206f6620626f756e6400000000600082015250565b6000611280601c83610f56565b915061128b8261124a565b602082019050919050565b600060208201905081810360008301526112af81611273565b9050919050565b7f6f776e6572206164647265737320646f6573206e6f7420657869737400000000600082015250565b60006112ec601c83610f56565b91506112f7826112b6565b602082019050919050565b6000602082019050818103600083015261131b816112df565b9050919050565b7f6164647265737320646f6573206e6f7420657869737400000000000000000000600082015250565b6000611358601683610f56565b915061136382611322565b602082019050919050565b600060208201905081810360008301526113878161134b565b9050919050565b7f4572726f722d4552433732313a205472616e7366657220746f20746865207a6560008201527f726f206164647265737300000000000000000000000000000000000000000000602082015250565b60006113ea602a83610f56565b91506113f58261138e565b604082019050919050565b60006020820190508181036000830152611419816113dd565b9050919050565b7f4572726f722d4552433732313a204f6e6c79206f776e65722063616e20646f2060008201527f746865207472616e73616374696f6e0000000000000000000000000000000000602082015250565b600061147c602f83610f56565b915061148782611420565b604082019050919050565b600060208201905081810360008301526114ab8161146f565b9050919050565b7f4e487b7100000000000000000000000000000000000000000000000000000000600052601160045260246000fd5b60006114ec82610d41565b91506114f783610d41565b9250827fffffffffffffffffffffffffffffffffffffffffffffffffffffffffffffffff0382111561152c5761152b6114b2565b5b828201905092915050565b600061154282610d41565b915061154d83610d41565b9250828210156115605761155f6114b2565b5b828203905092915050565b7f536166654d6174683a205375627472616374696f6e204f766572666c6f770000600082015250565b60006115a1601e83610f56565b91506115ac8261156b565b602082019050919050565b600060208201905081810360008301526115d081611594565b905091905056fea26469706673582212207961f51979b75d2e827572d2c561dda534357fdd2edc7317141dfb3f42cd2e7864736f6c634300080c0033",
  "immutableReferences": {},
  "source": "// SPDX-License-Identifier: MIT\r\npragma solidity ^0.8.0;\r\n\r\nimport './ERC721.sol';\r\n\r\nimport './interfaces/IERC721Enumerable.sol';\r\n\r\ncontract ERC721Enumerable is IERC721Enumerable, ERC721 {\r\n\r\n    uint256[] private _allTokens;\r\n\r\n    // mapping from tokenId to position in _allTokens array\r\n    mapping(uint256 => uint256) private _allTokensIndex;\r\n\r\n    // mapping of owner to owned token ids\r\n    mapping(address => uint256[]) private _ownedTokens;\r\n\r\n    // mapping from tokenId index of the owned token list\r\n    mapping(uint256 => uint256) private _ownedTokensIndex;\r\n\r\n\r\n    constructor() {\r\n\r\n        _registerInterface(bytes4(keccak256('totalSupply(bytes4)')^\r\n                                  keccak256('tokenByIndex(bytes4)')^\r\n                                  keccak256('tokenOfOwnerByIndex(bytes4)')));\r\n\r\n    }\r\n\r\n\r\n    // returns token by index\r\n    function tokenByIndex(uint256 _index) external view override returns (uint256) {\r\n\r\n        // checking that the index is not out of range\r\n        require( _index < totalSupply(), \"global index is out of bound\");\r\n        \r\n        return _allTokens[_index];\r\n\r\n    }\r\n\r\n\r\n    // returns token of owner by index\r\n    function tokenOfOwnerByIndex(address _owner, uint256 _index) external view override returns (uint256) {\r\n\r\n        // checking that the owner index is not out of range\r\n        require( _index < balanceOf(_owner), \"owner index is out of range\");\r\n        \r\n        return _ownedTokens[_owner][_index];\r\n\r\n    }\r\n\r\n\r\n    // add tokens to the _allTokens array and set the position of the index\r\n    function _addTokensToAllTotalEnumeration(uint256 tokenId) private {\r\n\r\n        _allTokensIndex[tokenId] = _allTokens.length;\r\n        _allTokens.push(tokenId);\r\n\r\n    }\r\n\r\n\r\n    // return the total supply of the _allTokens array\r\n    function totalSupply() public view override returns (uint256) {\r\n\r\n        return _allTokens.length;\r\n\r\n    }\r\n\r\n\r\n    function _addTokensToOwnerEnumeration(address to, uint256 tokenId) private {\r\n\r\n        // add address and token id to the _ownedTokens\r\n        _ownedTokens[to].push(tokenId);\r\n        \r\n        // ownedTokensIndex, tokenId set to address of ownedTokens position\r\n        _ownedTokensIndex[tokenId] = _ownedTokens[to].length;\r\n\r\n        // execute this function with minting\r\n\r\n    }\r\n\r\n\r\n    function _mint(address to, uint256 tokenId) internal override(ERC721) {\r\n\r\n        super._mint(to, tokenId);\r\n\r\n        // add tokens to _allTokens\r\n        _addTokensToAllTotalEnumeration(tokenId);\r\n\r\n        // add tokens to the owner\r\n        _addTokensToOwnerEnumeration(to, tokenId);\r\n\r\n    }\r\n\r\n}",
  "sourcePath": "D:\\Blockchain\\Projects\\NFT Marketplace\\src\\contracts\\ERC721Enumerable.sol",
  "compiler": {
    "name": "solc",
    "version": "0.8.12+commit.f00d7308.Emscripten.clang"
  },
  "schemaVersion": "3.4.4",
  "updatedAt": "2022-02-25T16:51:47.417Z",
  "devdoc": {
    "kind": "dev",
    "methods": {
      "balanceOf(address)": {
        "details": "NFTs assigned to the zero address are considered invalid, and this  function throws for queries about the zero address.",
        "params": {
          "_owner": "An address for whom to query the balance"
        },
        "returns": {
          "_0": "The number of NFTs owned by `_owner`, possibly zero"
        }
      },
      "ownerOf(uint256)": {
        "details": "NFTs assigned to zero address are considered invalid, and queries  about them do throw.",
        "params": {
          "_tokenId": "The identifier for an NFT"
        },
        "returns": {
          "_0": "The address of the owner of the NFT"
        }
      },
      "supportsInterface(bytes4)": {
        "details": "Interface identification is specified in ERC-165. This function  uses less than 30,000 gas.",
        "params": {
          "interfaceID": "The interface identifier, as specified in ERC-165"
        },
        "returns": {
          "_0": "`true` if the contract implements `interfaceID` and  `interfaceID` is not 0xffffffff, `false` otherwise"
        }
      },
      "tokenByIndex(uint256)": {
        "details": "Throws if `_index` >= `totalSupply()`.",
        "params": {
          "_index": "A counter less than `totalSupply()`"
        },
        "returns": {
          "_0": "The token identifier for the `_index`th NFT,  (sort order not specified)"
        }
      },
      "tokenOfOwnerByIndex(address,uint256)": {
        "details": "Throws if `_index` >= `balanceOf(_owner)` or if  `_owner` is the zero address, representing invalid NFTs.",
        "params": {
          "_index": "A counter less than `balanceOf(_owner)`",
          "_owner": "An address where we are interested in NFTs owned by them"
        },
        "returns": {
          "_0": "The token identifier for the `_index`th NFT assigned to `_owner`,   (sort order not specified)"
        }
      },
      "totalSupply()": {
        "returns": {
          "_0": "A count of valid NFTs tracked by this contract, where each one of  them has an assigned and queryable owner not equal to the zero address"
        }
      },
      "transferFrom(address,address,uint256)": {
        "details": "Throws unless `msg.sender` is the current owner, an authorized  operator, or the approved address for this NFT. Throws if `_from` is  not the current owner. Throws if `_to` is the zero address. Throws if  `_tokenId` is not a valid NFT.",
        "params": {
          "_from": "The current owner of the NFT",
          "_to": "The new owner",
          "_tokenId": "The NFT to transfer"
        }
      }
    },
    "version": 1
  },
  "userdoc": {
    "kind": "user",
    "methods": {
      "balanceOf(address)": {
        "notice": "Count all NFTs assigned to an owner"
      },
      "ownerOf(uint256)": {
        "notice": "Find the owner of an NFT"
      },
      "supportsInterface(bytes4)": {
        "notice": "Query if a contract implements an interface"
      },
      "tokenByIndex(uint256)": {
        "notice": "Enumerate valid NFTs"
      },
      "tokenOfOwnerByIndex(address,uint256)": {
        "notice": "Enumerate NFTs assigned to an owner"
      },
      "totalSupply()": {
        "notice": "Count NFTs tracked by this contract"
      },
      "transferFrom(address,address,uint256)": {
        "notice": "Transfer ownership of an NFT -- THE CALLER IS RESPONSIBLE  TO CONFIRM THAT `_to` IS CAPABLE OF RECEIVING NFTS OR ELSE  THEY MAY BE PERMANENTLY LOST"
      }
    },
    "version": 1
  }
}