{
  "contractName": "NarutoNFT",
  "abi": [
    {
      "inputs": [],
      "stateMutability": "nonpayable",
      "type": "constructor"
    },
    {
      "anonymous": false,
      "inputs": [
        {
          "indexed": true,
          "internalType": "address",
          "name": "from",
          "type": "address"
        },
        {
          "indexed": true,
          "internalType": "address",
          "name": "to",
          "type": "address"
        },
        {
          "indexed": true,
          "internalType": "uint256",
          "name": "tokenId",
          "type": "uint256"
        }
      ],
      "name": "Transfer",
      "type": "event"
    },
    {
      "inputs": [
        {
          "internalType": "address",
          "name": "_owner",
          "type": "address"
        }
      ],
      "name": "balanceOf",
      "outputs": [
        {
          "internalType": "uint256",
          "name": "",
          "type": "uint256"
        }
      ],
      "stateMutability": "view",
      "type": "function",
      "constant": true
    },
    {
      "inputs": [],
      "name": "name",
      "outputs": [
        {
          "internalType": "string",
          "name": "",
          "type": "string"
        }
      ],
      "stateMutability": "view",
      "type": "function",
      "constant": true
    },
    {
      "inputs": [
        {
          "internalType": "uint256",
          "name": "",
          "type": "uint256"
        }
      ],
      "name": "narutoNFT",
      "outputs": [
        {
          "internalType": "string",
          "name": "",
          "type": "string"
        }
      ],
      "stateMutability": "view",
      "type": "function",
      "constant": true
    },
    {
      "inputs": [
        {
          "internalType": "uint256",
          "name": "_tokenId",
          "type": "uint256"
        }
      ],
      "name": "ownerOf",
      "outputs": [
        {
          "internalType": "address",
          "name": "",
          "type": "address"
        }
      ],
      "stateMutability": "view",
      "type": "function",
      "constant": true
    },
    {
      "inputs": [],
      "name": "symbol",
      "outputs": [
        {
          "internalType": "string",
          "name": "",
          "type": "string"
        }
      ],
      "stateMutability": "view",
      "type": "function",
      "constant": true
    },
    {
      "inputs": [
        {
          "internalType": "string",
          "name": "_narutoNFT",
          "type": "string"
        }
      ],
      "name": "mint",
      "outputs": [],
      "stateMutability": "nonpayable",
      "type": "function"
    }
  ],
  "bytecode": "0x60806040523480156200001157600080fd5b506040518060400160405280600981526020017f4e617275746f4e465400000000000000000000000000000000000000000000008152506040518060400160405280600681526020017f4e415255544f00000000000000000000000000000000000000000000000000008152508181816000908051906020019062000098929190620000bc565b508060019080519060200190620000b1929190620000bc565b5050505050620001d1565b828054620000ca906200019b565b90600052602060002090601f016020900481019282620000ee57600085556200013a565b82601f106200010957805160ff19168380011785556200013a565b828001600101855582156200013a579182015b82811115620001395782518255916020019190600101906200011c565b5b5090506200014991906200014d565b5090565b5b80821115620001685760008160009055506001016200014e565b5090565b7f4e487b7100000000000000000000000000000000000000000000000000000000600052602260045260246000fd5b60006002820490506001821680620001b457607f821691505b60208210811415620001cb57620001ca6200016c565b5b50919050565b610fc880620001e16000396000f3fe608060405234801561001057600080fd5b50600436106100625760003560e01c806306fdde03146100675780636352211e146100855780636603dd11146100b557806370a08231146100e557806395d89b4114610115578063d85d3d2714610133575b600080fd5b61006f61014f565b60405161007c91906108fa565b60405180910390f35b61009f600480360381019061009a9190610966565b6101e1565b6040516100ac91906109d4565b60405180910390f35b6100cf60048036038101906100ca9190610966565b610293565b6040516100dc91906108fa565b60405180910390f35b6100ff60048036038101906100fa9190610a1b565b61033f565b60405161010c9190610a57565b60405180910390f35b61011d6103f7565b60405161012a91906108fa565b60405180910390f35b61014d60048036038101906101489190610ba7565b610489565b005b60606000805461015e90610c1f565b80601f016020809104026020016040519081016040528092919081815260200182805461018a90610c1f565b80156101d75780601f106101ac576101008083540402835291602001916101d7565b820191906000526020600020905b8154815290600101906020018083116101ba57829003601f168201915b5050505050905090565b6000806002600084815260200190815260200160002060009054906101000a900473ffffffffffffffffffffffffffffffffffffffff169050600073ffffffffffffffffffffffffffffffffffffffff168173ffffffffffffffffffffffffffffffffffffffff16141561028a576040517f08c379a000000000000000000000000000000000000000000000000000000000815260040161028190610c9d565b60405180910390fd5b80915050919050565b600481815481106102a357600080fd5b9060005260206000200160009150905080546102be90610c1f565b80601f01602080910402602001604051908101604052809291908181526020018280546102ea90610c1f565b80156103375780601f1061030c57610100808354040283529160200191610337565b820191906000526020600020905b81548152906001019060200180831161031a57829003601f168201915b505050505081565b60008073ffffffffffffffffffffffffffffffffffffffff168273ffffffffffffffffffffffffffffffffffffffff1614156103b0576040517f08c379a00000000000000000000000000000000000000000000000000000000081526004016103a790610d09565b60405180910390fd5b600360008373ffffffffffffffffffffffffffffffffffffffff1673ffffffffffffffffffffffffffffffffffffffff168152602001908152602001600020549050919050565b60606001805461040690610c1f565b80601f016020809104026020016040519081016040528092919081815260200182805461043290610c1f565b801561047f5780601f106104545761010080835404028352916020019161047f565b820191906000526020600020905b81548152906001019060200180831161046257829003601f168201915b5050505050905090565b6005816040516104999190610d65565b908152602001604051809103902060009054906101000a900460ff16156104f5576040517f08c379a00000000000000000000000000000000000000000000000000000000081526004016104ec90610dc8565b60405180910390fd5b6004819080600181540180825580915050600190039060005260206000200160009091909190915090805190602001906105309291906107be565b50600060016004805490506105459190610e17565b9050610551338261058c565b60016005836040516105639190610d65565b908152602001604051809103902060006101000a81548160ff0219169083151502179055505050565b600073ffffffffffffffffffffffffffffffffffffffff168273ffffffffffffffffffffffffffffffffffffffff1614156105fc576040517f08c379a00000000000000000000000000000000000000000000000000000000081526004016105f390610ebd565b60405180910390fd5b6106058161074c565b15610645576040517f08c379a000000000000000000000000000000000000000000000000000000000815260040161063c90610f29565b60405180910390fd5b816002600083815260200190815260200160002060006101000a81548173ffffffffffffffffffffffffffffffffffffffff021916908373ffffffffffffffffffffffffffffffffffffffff160217905550600360008373ffffffffffffffffffffffffffffffffffffffff1673ffffffffffffffffffffffffffffffffffffffff16815260200190815260200160002060008154809291906106e790610f49565b9190505550808273ffffffffffffffffffffffffffffffffffffffff16600073ffffffffffffffffffffffffffffffffffffffff167fddf252ad1be2c89b69c2b068fc378daa952ba7f163c4a11628f55a4df523b3ef60405160405180910390a45050565b6000806002600084815260200190815260200160002060009054906101000a900473ffffffffffffffffffffffffffffffffffffffff169050600073ffffffffffffffffffffffffffffffffffffffff168173ffffffffffffffffffffffffffffffffffffffff161415915050919050565b8280546107ca90610c1f565b90600052602060002090601f0160209004810192826107ec5760008555610833565b82601f1061080557805160ff1916838001178555610833565b82800160010185558215610833579182015b82811115610832578251825591602001919060010190610817565b5b5090506108409190610844565b5090565b5b8082111561085d576000816000905550600101610845565b5090565b600081519050919050565b600082825260208201905092915050565b60005b8381101561089b578082015181840152602081019050610880565b838111156108aa576000848401525b50505050565b6000601f19601f8301169050919050565b60006108cc82610861565b6108d6818561086c565b93506108e681856020860161087d565b6108ef816108b0565b840191505092915050565b6000602082019050818103600083015261091481846108c1565b905092915050565b6000604051905090565b600080fd5b600080fd5b6000819050919050565b61094381610930565b811461094e57600080fd5b50565b6000813590506109608161093a565b92915050565b60006020828403121561097c5761097b610926565b5b600061098a84828501610951565b91505092915050565b600073ffffffffffffffffffffffffffffffffffffffff82169050919050565b60006109be82610993565b9050919050565b6109ce816109b3565b82525050565b60006020820190506109e960008301846109c5565b92915050565b6109f8816109b3565b8114610a0357600080fd5b50565b600081359050610a15816109ef565b92915050565b600060208284031215610a3157610a30610926565b5b6000610a3f84828501610a06565b91505092915050565b610a5181610930565b82525050565b6000602082019050610a6c6000830184610a48565b92915050565b600080fd5b600080fd5b7f4e487b7100000000000000000000000000000000000000000000000000000000600052604160045260246000fd5b610ab4826108b0565b810181811067ffffffffffffffff82111715610ad357610ad2610a7c565b5b80604052505050565b6000610ae661091c565b9050610af28282610aab565b919050565b600067ffffffffffffffff821115610b1257610b11610a7c565b5b610b1b826108b0565b9050602081019050919050565b82818337600083830152505050565b6000610b4a610b4584610af7565b610adc565b905082815260208101848484011115610b6657610b65610a77565b5b610b71848285610b28565b509392505050565b600082601f830112610b8e57610b8d610a72565b5b8135610b9e848260208601610b37565b91505092915050565b600060208284031215610bbd57610bbc610926565b5b600082013567ffffffffffffffff811115610bdb57610bda61092b565b5b610be784828501610b79565b91505092915050565b7f4e487b7100000000000000000000000000000000000000000000000000000000600052602260045260246000fd5b60006002820490506001821680610c3757607f821691505b60208210811415610c4b57610c4a610bf0565b5b50919050565b7f6f776e6572206164647265737320646f6573206e6f7420657869737400000000600082015250565b6000610c87601c8361086c565b9150610c9282610c51565b602082019050919050565b60006020820190508181036000830152610cb681610c7a565b9050919050565b7f6164647265737320646f6573206e6f7420657869737400000000000000000000600082015250565b6000610cf360168361086c565b9150610cfe82610cbd565b602082019050919050565b60006020820190508181036000830152610d2281610ce6565b9050919050565b600081905092915050565b6000610d3f82610861565b610d498185610d29565b9350610d5981856020860161087d565b80840191505092915050565b6000610d718284610d34565b915081905092915050565b7f4572726f723a206e617275746f4e465420616c72656164792065786973747300600082015250565b6000610db2601f8361086c565b9150610dbd82610d7c565b602082019050919050565b60006020820190508181036000830152610de181610da5565b9050919050565b7f4e487b7100000000000000000000000000000000000000000000000000000000600052601160045260246000fd5b6000610e2282610930565b9150610e2d83610930565b925082821015610e4057610e3f610de8565b5b828203905092915050565b7f4552433732313a2063616e6e6f74206265206d696e74656420746f206164647260008201527f657373207a65726f000000000000000000000000000000000000000000000000602082015250565b6000610ea760288361086c565b9150610eb282610e4b565b604082019050919050565b60006020820190508181036000830152610ed681610e9a565b9050919050565b7f4552433732313a20746f6b656e20616c7265616479206d696e74656400000000600082015250565b6000610f13601c8361086c565b9150610f1e82610edd565b602082019050919050565b60006020820190508181036000830152610f4281610f06565b9050919050565b6000610f5482610930565b91507fffffffffffffffffffffffffffffffffffffffffffffffffffffffffffffffff821415610f8757610f86610de8565b5b60018201905091905056fea2646970667358221220d3fca16c1762f299c8656c40771ae1d5ff3d78d089e2265dfb90b73e075112cc64736f6c634300080c0033",
  "immutableReferences": {},
  "source": "// SPDX-License-Identifier: MIT\r\npragma solidity ^0.8.0;\r\n\r\nimport './ERC721Connector.sol';\r\n\r\ncontract NarutoNFT is ERC721Connector {\r\n\r\n    // array to store nfts\r\n    string[] public narutoNFT;\r\n\r\n    mapping(string => bool) _narutoNFTExists;\r\n\r\n    function mint(string memory _narutoNFT) public {\r\n\r\n        require(!_narutoNFTExists[_narutoNFT], \"Error: narutoNFT already exists\");\r\n\r\n        narutoNFT.push(_narutoNFT);\r\n        uint _id = narutoNFT.length - 1;\r\n\r\n        _mint(msg.sender, _id);\r\n\r\n        _narutoNFTExists[_narutoNFT] = true;\r\n\r\n    }\r\n    \r\n    constructor() ERC721Connector(\"NarutoNFT\", \"NARUTO\") {\r\n\r\n    }\r\n\r\n}",
  "sourcePath": "D:\\Blockchain\\Projects\\NFT Marketplace\\src\\contracts\\NarutoNFT.sol",
  "compiler": {
    "name": "solc",
    "version": "0.8.12+commit.f00d7308.Emscripten.clang"
  },
  "schemaVersion": "3.4.4",
  "updatedAt": "2022-02-17T12:09:37.886Z",
  "networkType": "ethereum",
  "devdoc": {
    "kind": "dev",
    "methods": {},
    "version": 1
  },
  "userdoc": {
    "kind": "user",
    "methods": {},
    "version": 1
  }
}