{
  "contractName": "NarutoNFT",
  "abi": [
    {
      "inputs": [],
      "stateMutability": "nonpayable",
      "type": "constructor"
    },
    {
      "anonymous": false,
      "inputs": [
        {
          "indexed": true,
          "internalType": "address",
          "name": "_owner",
          "type": "address"
        },
        {
          "indexed": true,
          "internalType": "address",
          "name": "_approved",
          "type": "address"
        },
        {
          "indexed": true,
          "internalType": "uint256",
          "name": "_tokenId",
          "type": "uint256"
        }
      ],
      "name": "Approval",
      "type": "event"
    },
    {
      "anonymous": false,
      "inputs": [
        {
          "indexed": true,
          "internalType": "address",
          "name": "_from",
          "type": "address"
        },
        {
          "indexed": true,
          "internalType": "address",
          "name": "_to",
          "type": "address"
        },
        {
          "indexed": true,
          "internalType": "uint256",
          "name": "_tokenId",
          "type": "uint256"
        }
      ],
      "name": "Transfer",
      "type": "event"
    },
    {
      "inputs": [
        {
          "internalType": "address",
          "name": "_to",
          "type": "address"
        },
        {
          "internalType": "uint256",
          "name": "_tokenId",
          "type": "uint256"
        }
      ],
      "name": "approve",
      "outputs": [],
      "stateMutability": "nonpayable",
      "type": "function"
    },
    {
      "inputs": [
        {
          "internalType": "address",
          "name": "_owner",
          "type": "address"
        }
      ],
      "name": "balanceOf",
      "outputs": [
        {
          "internalType": "uint256",
          "name": "",
          "type": "uint256"
        }
      ],
      "stateMutability": "view",
      "type": "function",
      "constant": true
    },
    {
      "inputs": [
        {
          "internalType": "uint256",
          "name": "tokenId",
          "type": "uint256"
        }
      ],
      "name": "getApproved",
      "outputs": [
        {
          "internalType": "address",
          "name": "",
          "type": "address"
        }
      ],
      "stateMutability": "view",
      "type": "function",
      "constant": true
    },
    {
      "inputs": [
        {
          "internalType": "address",
          "name": "owner",
          "type": "address"
        },
        {
          "internalType": "address",
          "name": "operator",
          "type": "address"
        }
      ],
      "name": "isApprovedForAll",
      "outputs": [
        {
          "internalType": "bool",
          "name": "",
          "type": "bool"
        }
      ],
      "stateMutability": "view",
      "type": "function",
      "constant": true
    },
    {
      "inputs": [],
      "name": "name",
      "outputs": [
        {
          "internalType": "string",
          "name": "",
          "type": "string"
        }
      ],
      "stateMutability": "view",
      "type": "function",
      "constant": true
    },
    {
      "inputs": [
        {
          "internalType": "uint256",
          "name": "",
          "type": "uint256"
        }
      ],
      "name": "narutoNFT",
      "outputs": [
        {
          "internalType": "string",
          "name": "",
          "type": "string"
        }
      ],
      "stateMutability": "view",
      "type": "function",
      "constant": true
    },
    {
      "inputs": [
        {
          "internalType": "uint256",
          "name": "_tokenId",
          "type": "uint256"
        }
      ],
      "name": "ownerOf",
      "outputs": [
        {
          "internalType": "address",
          "name": "",
          "type": "address"
        }
      ],
      "stateMutability": "view",
      "type": "function",
      "constant": true
    },
    {
      "inputs": [
        {
          "internalType": "bytes4",
          "name": "interfaceID",
          "type": "bytes4"
        }
      ],
      "name": "supportsInterface",
      "outputs": [
        {
          "internalType": "bool",
          "name": "",
          "type": "bool"
        }
      ],
      "stateMutability": "view",
      "type": "function",
      "constant": true
    },
    {
      "inputs": [],
      "name": "symbol",
      "outputs": [
        {
          "internalType": "string",
          "name": "",
          "type": "string"
        }
      ],
      "stateMutability": "view",
      "type": "function",
      "constant": true
    },
    {
      "inputs": [
        {
          "internalType": "uint256",
          "name": "_index",
          "type": "uint256"
        }
      ],
      "name": "tokenByIndex",
      "outputs": [
        {
          "internalType": "uint256",
          "name": "",
          "type": "uint256"
        }
      ],
      "stateMutability": "view",
      "type": "function",
      "constant": true
    },
    {
      "inputs": [
        {
          "internalType": "address",
          "name": "_owner",
          "type": "address"
        },
        {
          "internalType": "uint256",
          "name": "_index",
          "type": "uint256"
        }
      ],
      "name": "tokenOfOwnerByIndex",
      "outputs": [
        {
          "internalType": "uint256",
          "name": "",
          "type": "uint256"
        }
      ],
      "stateMutability": "view",
      "type": "function",
      "constant": true
    },
    {
      "inputs": [],
      "name": "totalSupply",
      "outputs": [
        {
          "internalType": "uint256",
          "name": "",
          "type": "uint256"
        }
      ],
      "stateMutability": "view",
      "type": "function",
      "constant": true
    },
    {
      "inputs": [
        {
          "internalType": "address",
          "name": "_from",
          "type": "address"
        },
        {
          "internalType": "address",
          "name": "_to",
          "type": "address"
        },
        {
          "internalType": "uint256",
          "name": "_tokenId",
          "type": "uint256"
        }
      ],
      "name": "transferFrom",
      "outputs": [],
      "stateMutability": "nonpayable",
      "type": "function"
    },
    {
      "inputs": [
        {
          "internalType": "string",
          "name": "_narutoNFT",
          "type": "string"
        }
      ],
      "name": "mint",
      "outputs": [],
      "stateMutability": "nonpayable",
      "type": "function"
    }
  ],
  "bytecode": "0x60806040523480156200001157600080fd5b506040518060400160405280600981526020017f4e617275746f4e465400000000000000000000000000000000000000000000008152506040518060400160405280600681526020017f4e415255544f00000000000000000000000000000000000000000000000000008152508181620000b17f01ffc9a7a5cef8baa21ed3c5c0d7e23accb804b619e9333b597f47a0d84076e26200022a60201b60201c565b620001047f13b182f4c0e5b2efbac0efe6cf6d756c8b89f4b79c5707a043ed9ea740574ee97f7feaf19471f34a12a7eaf32d5f3090aa2260ea8624dc8a138e74e0bf0f623076186200022a60201b60201c565b81600190805190602001906200011c92919062000302565b5080600290805190602001906200013592919062000302565b505050620001ad7f22c82707ba960a14c7592ffb6b8cfaa073fed0048a84cc7fa41f6b5bd8e7f2e47f3a6eb71757dfc6e784c1459d26270140c2c147d95ca985c80026fc5301c3eca17f8a7e378434598edc36d108689a030cbc9d7d465de4f74c71bae1028eed6a881b18186200022a60201b60201c565b620002227f8230223f691b981717299fae9549350a0d894555723531f02108b1f522c1a7977f6da5e1284143cdd2d15038a59bde3be031250f00291d64494c12d967b3a4e0c37fc53637662700e6c65104059db8bba34439e0c32483ab7c34e3ccae52c739549518186200022a60201b60201c565b5050620004c0565b63ffffffff60e01b817bffffffffffffffffffffffffffffffffffffffffffffffffffffffff1916141562000296576040517f08c379a00000000000000000000000000000000000000000000000000000000081526004016200028d9062000439565b60405180910390fd5b6001600080837bffffffffffffffffffffffffffffffffffffffffffffffffffffffff19167bffffffffffffffffffffffffffffffffffffffffffffffffffffffff1916815260200190815260200160002060006101000a81548160ff02191690831515021790555050565b82805462000310906200048a565b90600052602060002090601f01602090048101928262000334576000855562000380565b82601f106200034f57805160ff191683800117855562000380565b8280016001018555821562000380579182015b828111156200037f57825182559160200191906001019062000362565b5b5090506200038f919062000393565b5090565b5b80821115620003ae57600081600090555060010162000394565b5090565b600082825260208201905092915050565b7f4572726f722d4552433136353a20496e76616c696420696e746572666163652060008201527f7265717565737400000000000000000000000000000000000000000000000000602082015250565b600062000421602783620003b2565b91506200042e82620003c3565b604082019050919050565b60006020820190508181036000830152620004548162000412565b9050919050565b7f4e487b7100000000000000000000000000000000000000000000000000000000600052602260045260246000fd5b60006002820490506001821680620004a357607f821691505b60208210811415620004ba57620004b96200045b565b5b50919050565b61218c80620004d06000396000f3fe608060405234801561001057600080fd5b50600436106100ea5760003560e01c80634f6ccce71161008c57806370a082311161006657806370a082311461028357806395d89b41146102b3578063d85d3d27146102d1578063e985e9c5146102ed576100ea565b80634f6ccce7146101f35780636352211e146102235780636603dd1114610253576100ea565b8063095ea7b3116100c8578063095ea7b31461016d57806318160ddd1461018957806323b872dd146101a75780632f745c59146101c3576100ea565b806301ffc9a7146100ef57806306fdde031461011f578063081812fc1461013d575b600080fd5b61010960048036038101906101049190611417565b61031d565b604051610116919061145f565b60405180910390f35b610127610384565b6040516101349190611513565b60405180910390f35b6101576004803603810190610152919061156b565b610416565b60405161016491906115d9565b60405180910390f35b61018760048036038101906101829190611620565b61049b565b005b610191610637565b60405161019e919061166f565b60405180910390f35b6101c160048036038101906101bc919061168a565b610644565b005b6101dd60048036038101906101d89190611620565b61069d565b6040516101ea919061166f565b60405180910390f35b61020d6004803603810190610208919061156b565b61074d565b60405161021a919061166f565b60405180910390f35b61023d6004803603810190610238919061156b565b6107be565b60405161024a91906115d9565b60405180910390f35b61026d6004803603810190610268919061156b565b610870565b60405161027a9190611513565b60405180910390f35b61029d600480360381019061029891906116dd565b61091c565b6040516102aa919061166f565b60405180910390f35b6102bb6109db565b6040516102c89190611513565b60405180910390f35b6102eb60048036038101906102e6919061183f565b610a6d565b005b61030760048036038101906103029190611888565b610b70565b604051610314919061145f565b60405180910390f35b6000806000837bffffffffffffffffffffffffffffffffffffffffffffffffffffffff19167bffffffffffffffffffffffffffffffffffffffffffffffffffffffff1916815260200190815260200160002060009054906101000a900460ff169050919050565b606060018054610393906118f7565b80601f01602080910402602001604051908101604052809291908181526020018280546103bf906118f7565b801561040c5780601f106103e15761010080835404028352916020019161040c565b820191906000526020600020905b8154815290600101906020018083116103ef57829003601f168201915b5050505050905090565b600061042182610c04565b610460576040517f08c379a00000000000000000000000000000000000000000000000000000000081526004016104579061199b565b60405180910390fd5b6005600083815260200190815260200160002060009054906101000a900473ffffffffffffffffffffffffffffffffffffffff169050919050565b60006104a6826107be565b90508073ffffffffffffffffffffffffffffffffffffffff168373ffffffffffffffffffffffffffffffffffffffff161415610517576040517f08c379a000000000000000000000000000000000000000000000000000000000815260040161050e90611a2d565b60405180910390fd5b8073ffffffffffffffffffffffffffffffffffffffff163373ffffffffffffffffffffffffffffffffffffffff1614610585576040517f08c379a000000000000000000000000000000000000000000000000000000000815260040161057c90611abf565b60405180910390fd5b826005600084815260200190815260200160002060006101000a81548173ffffffffffffffffffffffffffffffffffffffff021916908373ffffffffffffffffffffffffffffffffffffffff160217905550818373ffffffffffffffffffffffffffffffffffffffff168273ffffffffffffffffffffffffffffffffffffffff167f8c5be1e5ebec7d5bd14f71427d1e84f3dd0314c0f7b2291e5b200ac8c7c3b92560405160405180910390a4505050565b6000600780549050905090565b61064e3382610c76565b61068d576040517f08c379a000000000000000000000000000000000000000000000000000000000815260040161068490611b51565b60405180910390fd5b610698838383610d54565b505050565b60006106a88361091c565b82106106e9576040517f08c379a00000000000000000000000000000000000000000000000000000000081526004016106e090611bbd565b60405180910390fd5b600960008473ffffffffffffffffffffffffffffffffffffffff1673ffffffffffffffffffffffffffffffffffffffff168152602001908152602001600020828154811061073a57610739611bdd565b5b9060005260206000200154905092915050565b6000610757610637565b8210610798576040517f08c379a000000000000000000000000000000000000000000000000000000000815260040161078f90611c58565b60405180910390fd5b600782815481106107ac576107ab611bdd565b5b90600052602060002001549050919050565b6000806003600084815260200190815260200160002060009054906101000a900473ffffffffffffffffffffffffffffffffffffffff169050600073ffffffffffffffffffffffffffffffffffffffff168173ffffffffffffffffffffffffffffffffffffffff161415610867576040517f08c379a000000000000000000000000000000000000000000000000000000000815260040161085e90611cc4565b60405180910390fd5b80915050919050565b600b818154811061088057600080fd5b90600052602060002001600091509050805461089b906118f7565b80601f01602080910402602001604051908101604052809291908181526020018280546108c7906118f7565b80156109145780601f106108e957610100808354040283529160200191610914565b820191906000526020600020905b8154815290600101906020018083116108f757829003601f168201915b505050505081565b60008073ffffffffffffffffffffffffffffffffffffffff168273ffffffffffffffffffffffffffffffffffffffff16141561098d576040517f08c379a000000000000000000000000000000000000000000000000000000000815260040161098490611d30565b60405180910390fd5b6109d4600460008473ffffffffffffffffffffffffffffffffffffffff1673ffffffffffffffffffffffffffffffffffffffff168152602001908152602001600020610f7a565b9050919050565b6060600280546109ea906118f7565b80601f0160208091040260200160405190810160405280929190818152602001828054610a16906118f7565b8015610a635780601f10610a3857610100808354040283529160200191610a63565b820191906000526020600020905b815481529060010190602001808311610a4657829003601f168201915b5050505050905090565b600c81604051610a7d9190611d8c565b908152602001604051809103902060009054906101000a900460ff1615610ad9576040517f08c379a0000000000000000000000000000000000000000000000000000000008152600401610ad090611def565b60405180910390fd5b600b81908060018154018082558091505060019003906000526020600020016000909190919091509080519060200190610b14929190611308565b5060006001600b80549050610b299190611e3e565b9050610b353382610f88565b6001600c83604051610b479190611d8c565b908152602001604051809103902060006101000a81548160ff0219169083151502179055505050565b6000600660008473ffffffffffffffffffffffffffffffffffffffff1673ffffffffffffffffffffffffffffffffffffffff16815260200190815260200160002060008373ffffffffffffffffffffffffffffffffffffffff1673ffffffffffffffffffffffffffffffffffffffff16815260200190815260200160002060009054906101000a900460ff16905092915050565b6000806003600084815260200190815260200160002060009054906101000a900473ffffffffffffffffffffffffffffffffffffffff169050600073ffffffffffffffffffffffffffffffffffffffff168173ffffffffffffffffffffffffffffffffffffffff161415915050919050565b6000610c8182610c04565b610cc0576040517f08c379a0000000000000000000000000000000000000000000000000000000008152600401610cb79061199b565b60405180910390fd5b6000610ccb836107be565b90508073ffffffffffffffffffffffffffffffffffffffff168473ffffffffffffffffffffffffffffffffffffffff161480610d3a57508373ffffffffffffffffffffffffffffffffffffffff16610d2284610416565b73ffffffffffffffffffffffffffffffffffffffff16145b80610d4b5750610d4a8185610b70565b5b91505092915050565b600073ffffffffffffffffffffffffffffffffffffffff168273ffffffffffffffffffffffffffffffffffffffff161415610dc4576040517f08c379a0000000000000000000000000000000000000000000000000000000008152600401610dbb90611ee4565b60405180910390fd5b8273ffffffffffffffffffffffffffffffffffffffff16610de4826107be565b73ffffffffffffffffffffffffffffffffffffffff1614610e3a576040517f08c379a0000000000000000000000000000000000000000000000000000000008152600401610e3190611f76565b60405180910390fd5b610e81600460008573ffffffffffffffffffffffffffffffffffffffff1673ffffffffffffffffffffffffffffffffffffffff168152602001908152602001600020610fa9565b610ec8600460008473ffffffffffffffffffffffffffffffffffffffff1673ffffffffffffffffffffffffffffffffffffffff168152602001908152602001600020610fcc565b816003600083815260200190815260200160002060006101000a81548173ffffffffffffffffffffffffffffffffffffffff021916908373ffffffffffffffffffffffffffffffffffffffff160217905550808273ffffffffffffffffffffffffffffffffffffffff168473ffffffffffffffffffffffffffffffffffffffff167fddf252ad1be2c89b69c2b068fc378daa952ba7f163c4a11628f55a4df523b3ef60405160405180910390a4505050565b600081600001549050919050565b610f928282610feb565b610f9b8161119d565b610fa582826111e6565b5050565b610fc1600182600001546112aa90919063ffffffff16565b816000018190555050565b6001816000016000828254610fe19190611f96565b9250508190555050565b600073ffffffffffffffffffffffffffffffffffffffff168273ffffffffffffffffffffffffffffffffffffffff16141561105b576040517f08c379a00000000000000000000000000000000000000000000000000000000081526004016110529061205e565b60405180910390fd5b61106481610c04565b156110a4576040517f08c379a000000000000000000000000000000000000000000000000000000000815260040161109b906120ca565b60405180910390fd5b816003600083815260200190815260200160002060006101000a81548173ffffffffffffffffffffffffffffffffffffffff021916908373ffffffffffffffffffffffffffffffffffffffff16021790555061113d600460008473ffffffffffffffffffffffffffffffffffffffff1673ffffffffffffffffffffffffffffffffffffffff168152602001908152602001600020610fcc565b808273ffffffffffffffffffffffffffffffffffffffff16600073ffffffffffffffffffffffffffffffffffffffff167fddf252ad1be2c89b69c2b068fc378daa952ba7f163c4a11628f55a4df523b3ef60405160405180910390a45050565b6007805490506008600083815260200190815260200160002081905550600781908060018154018082558091505060019003906000526020600020016000909190919091505550565b600960008373ffffffffffffffffffffffffffffffffffffffff1673ffffffffffffffffffffffffffffffffffffffff168152602001908152602001600020819080600181540180825580915050600190039060005260206000200160009091909190915055600960008373ffffffffffffffffffffffffffffffffffffffff1673ffffffffffffffffffffffffffffffffffffffff16815260200190815260200160002080549050600a6000838152602001908152602001600020819055505050565b60008082846112b99190611e3e565b9050838311156112fe576040517f08c379a00000000000000000000000000000000000000000000000000000000081526004016112f590612136565b60405180910390fd5b8091505092915050565b828054611314906118f7565b90600052602060002090601f016020900481019282611336576000855561137d565b82601f1061134f57805160ff191683800117855561137d565b8280016001018555821561137d579182015b8281111561137c578251825591602001919060010190611361565b5b50905061138a919061138e565b5090565b5b808211156113a757600081600090555060010161138f565b5090565b6000604051905090565b600080fd5b600080fd5b60007fffffffff0000000000000000000000000000000000000000000000000000000082169050919050565b6113f4816113bf565b81146113ff57600080fd5b50565b600081359050611411816113eb565b92915050565b60006020828403121561142d5761142c6113b5565b5b600061143b84828501611402565b91505092915050565b60008115159050919050565b61145981611444565b82525050565b60006020820190506114746000830184611450565b92915050565b600081519050919050565b600082825260208201905092915050565b60005b838110156114b4578082015181840152602081019050611499565b838111156114c3576000848401525b50505050565b6000601f19601f8301169050919050565b60006114e58261147a565b6114ef8185611485565b93506114ff818560208601611496565b611508816114c9565b840191505092915050565b6000602082019050818103600083015261152d81846114da565b905092915050565b6000819050919050565b61154881611535565b811461155357600080fd5b50565b6000813590506115658161153f565b92915050565b600060208284031215611581576115806113b5565b5b600061158f84828501611556565b91505092915050565b600073ffffffffffffffffffffffffffffffffffffffff82169050919050565b60006115c382611598565b9050919050565b6115d3816115b8565b82525050565b60006020820190506115ee60008301846115ca565b92915050565b6115fd816115b8565b811461160857600080fd5b50565b60008135905061161a816115f4565b92915050565b60008060408385031215611637576116366113b5565b5b60006116458582860161160b565b925050602061165685828601611556565b9150509250929050565b61166981611535565b82525050565b60006020820190506116846000830184611660565b92915050565b6000806000606084860312156116a3576116a26113b5565b5b60006116b18682870161160b565b93505060206116c28682870161160b565b92505060406116d386828701611556565b9150509250925092565b6000602082840312156116f3576116f26113b5565b5b60006117018482850161160b565b91505092915050565b600080fd5b600080fd5b7f4e487b7100000000000000000000000000000000000000000000000000000000600052604160045260246000fd5b61174c826114c9565b810181811067ffffffffffffffff8211171561176b5761176a611714565b5b80604052505050565b600061177e6113ab565b905061178a8282611743565b919050565b600067ffffffffffffffff8211156117aa576117a9611714565b5b6117b3826114c9565b9050602081019050919050565b82818337600083830152505050565b60006117e26117dd8461178f565b611774565b9050828152602081018484840111156117fe576117fd61170f565b5b6118098482856117c0565b509392505050565b600082601f8301126118265761182561170a565b5b81356118368482602086016117cf565b91505092915050565b600060208284031215611855576118546113b5565b5b600082013567ffffffffffffffff811115611873576118726113ba565b5b61187f84828501611811565b91505092915050565b6000806040838503121561189f5761189e6113b5565b5b60006118ad8582860161160b565b92505060206118be8582860161160b565b9150509250929050565b7f4e487b7100000000000000000000000000000000000000000000000000000000600052602260045260246000fd5b6000600282049050600182168061190f57607f821691505b60208210811415611923576119226118c8565b5b50919050565b7f4572726f722d4552433732313a20546f6b656e20696420646f6573206e6f742060008201527f6578697374000000000000000000000000000000000000000000000000000000602082015250565b6000611985602583611485565b915061199082611929565b604082019050919050565b600060208201905081810360008301526119b481611978565b9050919050565b7f4572726f722d4552433732313a204f776e65722063616e6e6f74207472616e7360008201527f66657220746f20697473656c6600000000000000000000000000000000000000602082015250565b6000611a17602d83611485565b9150611a22826119bb565b604082019050919050565b60006020820190508181036000830152611a4681611a0a565b9050919050565b7f4572726f722d4552433732313a204f6e6c79206f776e65722063616e2061707060008201527f726f766520746865207472616e73616374696f6e000000000000000000000000602082015250565b6000611aa9603483611485565b9150611ab482611a4d565b604082019050919050565b60006020820190508181036000830152611ad881611a9c565b9050919050565b7f4572726f722d4552433732313a204f6e6c79206f776e65722063616e2070657260008201527f666f726d20746865207472616e73666572000000000000000000000000000000602082015250565b6000611b3b603183611485565b9150611b4682611adf565b604082019050919050565b60006020820190508181036000830152611b6a81611b2e565b9050919050565b7f6f776e657220696e646578206973206f7574206f662072616e67650000000000600082015250565b6000611ba7601b83611485565b9150611bb282611b71565b602082019050919050565b60006020820190508181036000830152611bd681611b9a565b9050919050565b7f4e487b7100000000000000000000000000000000000000000000000000000000600052603260045260246000fd5b7f676c6f62616c20696e646578206973206f7574206f6620626f756e6400000000600082015250565b6000611c42601c83611485565b9150611c4d82611c0c565b602082019050919050565b60006020820190508181036000830152611c7181611c35565b9050919050565b7f6f776e6572206164647265737320646f6573206e6f7420657869737400000000600082015250565b6000611cae601c83611485565b9150611cb982611c78565b602082019050919050565b60006020820190508181036000830152611cdd81611ca1565b9050919050565b7f6164647265737320646f6573206e6f7420657869737400000000000000000000600082015250565b6000611d1a601683611485565b9150611d2582611ce4565b602082019050919050565b60006020820190508181036000830152611d4981611d0d565b9050919050565b600081905092915050565b6000611d668261147a565b611d708185611d50565b9350611d80818560208601611496565b80840191505092915050565b6000611d988284611d5b565b915081905092915050565b7f4572726f723a206e617275746f4e465420616c72656164792065786973747300600082015250565b6000611dd9601f83611485565b9150611de482611da3565b602082019050919050565b60006020820190508181036000830152611e0881611dcc565b9050919050565b7f4e487b7100000000000000000000000000000000000000000000000000000000600052601160045260246000fd5b6000611e4982611535565b9150611e5483611535565b925082821015611e6757611e66611e0f565b5b828203905092915050565b7f4572726f722d4552433732313a205472616e7366657220746f20746865207a6560008201527f726f206164647265737300000000000000000000000000000000000000000000602082015250565b6000611ece602a83611485565b9150611ed982611e72565b604082019050919050565b60006020820190508181036000830152611efd81611ec1565b9050919050565b7f4572726f722d4552433732313a204f6e6c79206f776e65722063616e20646f2060008201527f746865207472616e73616374696f6e0000000000000000000000000000000000602082015250565b6000611f60602f83611485565b9150611f6b82611f04565b604082019050919050565b60006020820190508181036000830152611f8f81611f53565b9050919050565b6000611fa182611535565b9150611fac83611535565b9250827fffffffffffffffffffffffffffffffffffffffffffffffffffffffffffffffff03821115611fe157611fe0611e0f565b5b828201905092915050565b7f4552433732313a2063616e6e6f74206265206d696e74656420746f206164647260008201527f657373207a65726f000000000000000000000000000000000000000000000000602082015250565b6000612048602883611485565b915061205382611fec565b604082019050919050565b600060208201905081810360008301526120778161203b565b9050919050565b7f4552433732313a20746f6b656e20616c7265616479206d696e74656400000000600082015250565b60006120b4601c83611485565b91506120bf8261207e565b602082019050919050565b600060208201905081810360008301526120e3816120a7565b9050919050565b7f536166654d6174683a205375627472616374696f6e204f766572666c6f770000600082015250565b6000612120601e83611485565b915061212b826120ea565b602082019050919050565b6000602082019050818103600083015261214f81612113565b905091905056fea2646970667358221220ec28816cde2f68d6edcbc12fd168b3143c8a00a2308820e4cedd37dfc69d4d1164736f6c634300080c0033",
  "immutableReferences": {},
  "source": "// SPDX-License-Identifier: MIT\r\npragma solidity ^0.8.0;\r\n\r\nimport './ERC721Connector.sol';\r\n\r\ncontract NarutoNFT is ERC721Connector {\r\n\r\n    // array to store nfts\r\n    string[] public narutoNFT;\r\n\r\n    mapping(string => bool) _narutoNFTExists;\r\n\r\n    function mint(string memory _narutoNFT) public {\r\n\r\n        require(!_narutoNFTExists[_narutoNFT], \"Error: narutoNFT already exists\");\r\n\r\n        narutoNFT.push(_narutoNFT);\r\n        uint _id = narutoNFT.length - 1;\r\n\r\n        _mint(msg.sender, _id);\r\n\r\n        _narutoNFTExists[_narutoNFT] = true;\r\n\r\n    }\r\n    \r\n    constructor() ERC721Connector(\"NarutoNFT\", \"NARUTO\") {\r\n\r\n    }\r\n\r\n}",
  "sourcePath": "D:\\Blockchain\\Projects\\NFT Marketplace\\src\\contracts\\NarutoNFT.sol",
  "compiler": {
    "name": "solc",
    "version": "0.8.12+commit.f00d7308.Emscripten.clang"
  },
  "schemaVersion": "3.4.4",
  "updatedAt": "2022-02-25T16:51:53.249Z",
  "networkType": "ethereum",
  "devdoc": {
    "kind": "dev",
    "methods": {
      "balanceOf(address)": {
        "details": "NFTs assigned to the zero address are considered invalid, and this  function throws for queries about the zero address.",
        "params": {
          "_owner": "An address for whom to query the balance"
        },
        "returns": {
          "_0": "The number of NFTs owned by `_owner`, possibly zero"
        }
      },
      "ownerOf(uint256)": {
        "details": "NFTs assigned to zero address are considered invalid, and queries  about them do throw.",
        "params": {
          "_tokenId": "The identifier for an NFT"
        },
        "returns": {
          "_0": "The address of the owner of the NFT"
        }
      },
      "supportsInterface(bytes4)": {
        "details": "Interface identification is specified in ERC-165. This function  uses less than 30,000 gas.",
        "params": {
          "interfaceID": "The interface identifier, as specified in ERC-165"
        },
        "returns": {
          "_0": "`true` if the contract implements `interfaceID` and  `interfaceID` is not 0xffffffff, `false` otherwise"
        }
      },
      "tokenByIndex(uint256)": {
        "details": "Throws if `_index` >= `totalSupply()`.",
        "params": {
          "_index": "A counter less than `totalSupply()`"
        },
        "returns": {
          "_0": "The token identifier for the `_index`th NFT,  (sort order not specified)"
        }
      },
      "tokenOfOwnerByIndex(address,uint256)": {
        "details": "Throws if `_index` >= `balanceOf(_owner)` or if  `_owner` is the zero address, representing invalid NFTs.",
        "params": {
          "_index": "A counter less than `balanceOf(_owner)`",
          "_owner": "An address where we are interested in NFTs owned by them"
        },
        "returns": {
          "_0": "The token identifier for the `_index`th NFT assigned to `_owner`,   (sort order not specified)"
        }
      },
      "totalSupply()": {
        "returns": {
          "_0": "A count of valid NFTs tracked by this contract, where each one of  them has an assigned and queryable owner not equal to the zero address"
        }
      },
      "transferFrom(address,address,uint256)": {
        "details": "Throws unless `msg.sender` is the current owner, an authorized  operator, or the approved address for this NFT. Throws if `_from` is  not the current owner. Throws if `_to` is the zero address. Throws if  `_tokenId` is not a valid NFT.",
        "params": {
          "_from": "The current owner of the NFT",
          "_to": "The new owner",
          "_tokenId": "The NFT to transfer"
        }
      }
    },
    "version": 1
  },
  "userdoc": {
    "kind": "user",
    "methods": {
      "balanceOf(address)": {
        "notice": "Count all NFTs assigned to an owner"
      },
      "name()": {
        "notice": "A descriptive name for a collection of NFTs in this contract"
      },
      "ownerOf(uint256)": {
        "notice": "Find the owner of an NFT"
      },
      "supportsInterface(bytes4)": {
        "notice": "Query if a contract implements an interface"
      },
      "symbol()": {
        "notice": "An abbreviated name for NFTs in this contract"
      },
      "tokenByIndex(uint256)": {
        "notice": "Enumerate valid NFTs"
      },
      "tokenOfOwnerByIndex(address,uint256)": {
        "notice": "Enumerate NFTs assigned to an owner"
      },
      "totalSupply()": {
        "notice": "Count NFTs tracked by this contract"
      },
      "transferFrom(address,address,uint256)": {
        "notice": "Transfer ownership of an NFT -- THE CALLER IS RESPONSIBLE  TO CONFIRM THAT `_to` IS CAPABLE OF RECEIVING NFTS OR ELSE  THEY MAY BE PERMANENTLY LOST"
      }
    },
    "version": 1
  }
}