{
  "contractName": "Faucet",
  "abi": [
    {
      "inputs": [],
      "name": "numOfFunders",
      "outputs": [
        {
          "internalType": "uint256",
          "name": "",
          "type": "uint256"
        }
      ],
      "stateMutability": "view",
      "type": "function"
    },
    {
      "inputs": [],
      "name": "owner",
      "outputs": [
        {
          "internalType": "address",
          "name": "",
          "type": "address"
        }
      ],
      "stateMutability": "view",
      "type": "function"
    },
    {
      "stateMutability": "payable",
      "type": "receive"
    },
    {
      "inputs": [],
      "name": "emitLog",
      "outputs": [
        {
          "internalType": "bytes32",
          "name": "",
          "type": "bytes32"
        }
      ],
      "stateMutability": "pure",
      "type": "function"
    },
    {
      "inputs": [],
      "name": "addFunds",
      "outputs": [],
      "stateMutability": "payable",
      "type": "function"
    },
    {
      "inputs": [],
      "name": "getAllFunders",
      "outputs": [
        {
          "internalType": "address[]",
          "name": "",
          "type": "address[]"
        }
      ],
      "stateMutability": "view",
      "type": "function"
    },
    {
      "inputs": [
        {
          "internalType": "uint8",
          "name": "index",
          "type": "uint8"
        }
      ],
      "name": "getFunderByIndex",
      "outputs": [
        {
          "internalType": "address",
          "name": "",
          "type": "address"
        }
      ],
      "stateMutability": "view",
      "type": "function"
    },
    {
      "inputs": [
        {
          "internalType": "uint256",
          "name": "withdrawAmount",
          "type": "uint256"
        }
      ],
      "name": "withdraw",
      "outputs": [],
      "stateMutability": "nonpayable",
      "type": "function"
    },
    {
      "inputs": [
        {
          "internalType": "address",
          "name": "newOwner",
          "type": "address"
        }
      ],
      "name": "transferOwnership",
      "outputs": [],
      "stateMutability": "nonpayable",
      "type": "function"
    }
  ],
  "bytecode": "0x608060405234801561001057600080fd5b50336000806101000a81548173ffffffffffffffffffffffffffffffffffffffff021916908373ffffffffffffffffffffffffffffffffffffffff160217905550610ae4806100606000396000f3fe60806040526004361061007f5760003560e01c8063af7f2c9b1161004e578063af7f2c9b14610114578063bca5f7cd1461013f578063f2fde38b1461017c578063f42c13bf146101a557610086565b80632e1a7d4d1461008b5780636fbbb55d146100b45780638da5cb5b146100df578063a26759cb1461010a57610086565b3661008657005b600080fd5b34801561009757600080fd5b506100b260048036038101906100ad919061061d565b6101d0565b005b3480156100c057600080fd5b506100c9610267565b6040516100d6919061073a565b60405180910390f35b3480156100eb57600080fd5b506100f4610361565b604051610101919061076b565b60405180910390f35b610112610385565b005b34801561012057600080fd5b506101296104a3565b6040516101369190610795565b60405180910390f35b34801561014b57600080fd5b50610166600480360381019061016191906107e9565b6104a9565b604051610173919061076b565b60405180910390f35b34801561018857600080fd5b506101a3600480360381019061019e9190610842565b6104e9565b005b3480156101b157600080fd5b506101ba6105ba565b6040516101c79190610888565b60405180910390f35b80670de0b6b3a764000081111561021c576040517f08c379a000000000000000000000000000000000000000000000000000000000815260040161021390610926565b60405180910390fd5b3373ffffffffffffffffffffffffffffffffffffffff166108fc839081150290604051600060405180830381858888f19350505050158015610262573d6000803e3d6000fd5b505050565b6060600060015467ffffffffffffffff81111561028757610286610946565b5b6040519080825280602002602001820160405280156102b55781602001602082028036833780820191505090505b50905060005b600154811015610359576003600082815260200190815260200160002060009054906101000a900473ffffffffffffffffffffffffffffffffffffffff1682828151811061030c5761030b610975565b5b602002602001019073ffffffffffffffffffffffffffffffffffffffff16908173ffffffffffffffffffffffffffffffffffffffff16815250508080610351906109d3565b9150506102bb565b508091505090565b60008054906101000a900473ffffffffffffffffffffffffffffffffffffffff1681565b6000339050600260008273ffffffffffffffffffffffffffffffffffffffff1673ffffffffffffffffffffffffffffffffffffffff16815260200190815260200160002060009054906101000a900460ff166104a0576001600260008373ffffffffffffffffffffffffffffffffffffffff1673ffffffffffffffffffffffffffffffffffffffff16815260200190815260200160002060006101000a81548160ff0219169083151502179055508060036000600154815260200190815260200160002060006101000a81548173ffffffffffffffffffffffffffffffffffffffff021916908373ffffffffffffffffffffffffffffffffffffffff1602179055506001600081548092919061049a906109d3565b91905055505b50565b60015481565b6000600360008360ff16815260200190815260200160002060009054906101000a900473ffffffffffffffffffffffffffffffffffffffff169050919050565b60008054906101000a900473ffffffffffffffffffffffffffffffffffffffff1673ffffffffffffffffffffffffffffffffffffffff163373ffffffffffffffffffffffffffffffffffffffff1614610577576040517f08c379a000000000000000000000000000000000000000000000000000000000815260040161056e90610a8e565b60405180910390fd5b806000806101000a81548173ffffffffffffffffffffffffffffffffffffffff021916908373ffffffffffffffffffffffffffffffffffffffff16021790555050565b60007f4e616d6173746500000000000000000000000000000000000000000000000000905090565b600080fd5b6000819050919050565b6105fa816105e7565b811461060557600080fd5b50565b600081359050610617816105f1565b92915050565b600060208284031215610633576106326105e2565b5b600061064184828501610608565b91505092915050565b600081519050919050565b600082825260208201905092915050565b6000819050602082019050919050565b600073ffffffffffffffffffffffffffffffffffffffff82169050919050565b60006106a182610676565b9050919050565b6106b181610696565b82525050565b60006106c383836106a8565b60208301905092915050565b6000602082019050919050565b60006106e78261064a565b6106f18185610655565b93506106fc83610666565b8060005b8381101561072d57815161071488826106b7565b975061071f836106cf565b925050600181019050610700565b5085935050505092915050565b6000602082019050818103600083015261075481846106dc565b905092915050565b61076581610696565b82525050565b6000602082019050610780600083018461075c565b92915050565b61078f816105e7565b82525050565b60006020820190506107aa6000830184610786565b92915050565b600060ff82169050919050565b6107c6816107b0565b81146107d157600080fd5b50565b6000813590506107e3816107bd565b92915050565b6000602082840312156107ff576107fe6105e2565b5b600061080d848285016107d4565b91505092915050565b61081f81610696565b811461082a57600080fd5b50565b60008135905061083c81610816565b92915050565b600060208284031215610858576108576105e2565b5b60006108668482850161082d565b91505092915050565b6000819050919050565b6108828161086f565b82525050565b600060208201905061089d6000830184610879565b92915050565b600082825260208201905092915050565b7f43616e6e6f74207769746864726177206d6f7265207468616e2031206574686560008201527f7200000000000000000000000000000000000000000000000000000000000000602082015250565b60006109106021836108a3565b915061091b826108b4565b604082019050919050565b6000602082019050818103600083015261093f81610903565b9050919050565b7f4e487b7100000000000000000000000000000000000000000000000000000000600052604160045260246000fd5b7f4e487b7100000000000000000000000000000000000000000000000000000000600052603260045260246000fd5b7f4e487b7100000000000000000000000000000000000000000000000000000000600052601160045260246000fd5b60006109de826105e7565b91507fffffffffffffffffffffffffffffffffffffffffffffffffffffffffffffffff821415610a1157610a106109a4565b5b600182019050919050565b7f4f6e6c79206f776e65722063616e2063616c6c20746869732066756e6374696f60008201527f6e00000000000000000000000000000000000000000000000000000000000000602082015250565b6000610a786021836108a3565b9150610a8382610a1c565b604082019050919050565b60006020820190508181036000830152610aa781610a6b565b905091905056fea26469706673582212206a737295094d6fd5f46d9bd9bc7d7d6d4bfc0d2e2cbdd917009d0c212a32958164736f6c634300080b0033",
  "immutableReferences": {},
  "source": "// SPDX-License-Identifier: MIT\r\npragma solidity >=0.4.22 <0.9.0;\r\n\r\n// importing files and libraries\r\nimport './Owned.sol';\r\nimport './Logger.sol';\r\nimport './IFaucet.sol';\r\n\r\n// contract\r\ncontract Faucet is Owned, Logger, IFaucet {\r\n\r\n    uint public numOfFunders;\r\n    mapping(address => bool) private funders;\r\n    mapping(uint => address) private lutFunders;\r\n\r\n    // modifiers\r\n    modifier limitWithdraw(uint withdrawAmount) {\r\n        \r\n        require(\r\n            withdrawAmount <= 1000000000000000000,\r\n            \"Cannot withdraw more than 1 ether\"\r\n        );\r\n        _;   \r\n    }\r\n\r\n    // function: receive\r\n    receive() external payable {}\r\n\r\n    // function: implementing Logger function emitLog\r\n    function emitLog() pure override public returns (bytes32) {\r\n        return \"Namaste\";\r\n    }\r\n\r\n    \r\n    // function: adding funds and funder to funders mapping, setting it to true\r\n    //           also checking and preventing duplication of funders\r\n    function addFunds() override external payable {\r\n\r\n        address funder = msg.sender;\r\n\r\n        if(!funders[funder]) {\r\n            funders[funder] = true;\r\n            lutFunders[numOfFunders] = funder;\r\n            numOfFunders++;\r\n        }\r\n    }\r\n\r\n    // function: retreiving all funders\r\n    function getAllFunders() external view returns(address[] memory) {\r\n        \r\n        address[] memory _funders = new address[](numOfFunders);\r\n\r\n        for(uint i = 0; i < numOfFunders; i++) {\r\n            _funders[i] = lutFunders[i];\r\n        }\r\n\r\n        return _funders;\r\n    }\r\n\r\n    // function: retreiving funder by index\r\n    function getFunderByIndex(uint8 index) external view returns(address) {\r\n       \r\n        return lutFunders[index];    \r\n    }\r\n\r\n    // function: withdrawing from account\r\n    function withdraw(uint withdrawAmount) override external limitWithdraw(withdrawAmount) {\r\n      \r\n        payable(msg.sender).transfer(withdrawAmount);    \r\n    }\r\n\r\n\r\n    // function: transfer ownership\r\n    function transferOwnership(address newOwner) external onlyOwner {\r\n\r\n        owner = newOwner;\r\n    }\r\n\r\n}",
  "sourcePath": "D:\\Blockchain\\Projects\\faucet\\contracts\\FaucetContract.sol",
  "compiler": {
    "name": "solc",
    "version": "0.8.11+commit.d7f03943.Emscripten.clang"
  },
  "schemaVersion": "3.4.4",
  "updatedAt": "2022-03-16T14:00:28.207Z",
  "devdoc": {
    "kind": "dev",
    "methods": {},
    "version": 1
  },
  "userdoc": {
    "kind": "user",
    "methods": {},
    "version": 1
  }
}